{
  "address": "0x4e64020dc800f02decb8Bd45bB4D0f74048e7535",
  "abi": [
    {
      "inputs": [
        {
          "internalType": "contract IInputBox",
          "name": "_inputBox",
          "type": "address"
        },
        {
          "internalType": "contract IDAOracle",
          "name": "_blobstreamX",
          "type": "address"
        }
      ],
      "stateMutability": "nonpayable",
      "type": "constructor"
    },
    {
      "inputs": [
        {
          "internalType": "address",
          "name": "_dapp",
          "type": "address"
        },
        {
          "components": [
            {
              "internalType": "bytes32[]",
              "name": "digests",
              "type": "bytes32[]"
            },
            {
              "components": [
                {
                  "internalType": "uint256",
                  "name": "beginKey",
                  "type": "uint256"
                },
                {
                  "internalType": "uint256",
                  "name": "endKey",
                  "type": "uint256"
                },
                {
                  "components": [
                    {
                      "components": [
                        {
                          "internalType": "bytes1",
                          "name": "version",
                          "type": "bytes1"
                        },
                        {
                          "internalType": "bytes28",
                          "name": "id",
                          "type": "bytes28"
                        }
                      ],
                      "internalType": "struct Namespace",
                      "name": "min",
                      "type": "tuple"
                    },
                    {
                      "components": [
                        {
                          "internalType": "bytes1",
                          "name": "version",
                          "type": "bytes1"
                        },
                        {
                          "internalType": "bytes28",
                          "name": "id",
                          "type": "bytes28"
                        }
                      ],
                      "internalType": "struct Namespace",
                      "name": "max",
                      "type": "tuple"
                    },
                    {
                      "internalType": "bytes32",
                      "name": "digest",
                      "type": "bytes32"
                    }
                  ],
                  "internalType": "struct NamespaceNode[]",
                  "name": "sideNodes",
                  "type": "tuple[]"
                }
              ],
              "internalType": "struct NamespaceMerkleMultiproof[]",
              "name": "shareProofs",
              "type": "tuple[]"
            },
            {
              "components": [
                {
                  "internalType": "bytes1",
                  "name": "version",
                  "type": "bytes1"
                },
                {
                  "internalType": "bytes28",
                  "name": "id",
                  "type": "bytes28"
                }
              ],
              "internalType": "struct Namespace",
              "name": "namespace",
              "type": "tuple"
            },
            {
              "components": [
                {
                  "components": [
                    {
                      "internalType": "bytes1",
                      "name": "version",
                      "type": "bytes1"
                    },
                    {
                      "internalType": "bytes28",
                      "name": "id",
                      "type": "bytes28"
                    }
                  ],
                  "internalType": "struct Namespace",
                  "name": "min",
                  "type": "tuple"
                },
                {
                  "components": [
                    {
                      "internalType": "bytes1",
                      "name": "version",
                      "type": "bytes1"
                    },
                    {
                      "internalType": "bytes28",
                      "name": "id",
                      "type": "bytes28"
                    }
                  ],
                  "internalType": "struct Namespace",
                  "name": "max",
                  "type": "tuple"
                },
                {
                  "internalType": "bytes32",
                  "name": "digest",
                  "type": "bytes32"
                }
              ],
              "internalType": "struct NamespaceNode[]",
              "name": "rowRoots",
              "type": "tuple[]"
            },
            {
              "components": [
                {
                  "internalType": "bytes32[]",
                  "name": "sideNodes",
                  "type": "bytes32[]"
                },
                {
                  "internalType": "uint256",
                  "name": "key",
                  "type": "uint256"
                },
                {
                  "internalType": "uint256",
                  "name": "numLeaves",
                  "type": "uint256"
                }
              ],
              "internalType": "struct BinaryMerkleProof[]",
              "name": "rowProofs",
              "type": "tuple[]"
            },
            {
              "components": [
                {
                  "internalType": "uint256",
                  "name": "tupleRootNonce",
                  "type": "uint256"
                },
                {
                  "components": [
                    {
                      "internalType": "uint256",
                      "name": "height",
                      "type": "uint256"
                    },
                    {
                      "internalType": "bytes32",
                      "name": "dataRoot",
                      "type": "bytes32"
                    }
                  ],
                  "internalType": "struct DataRootTuple",
                  "name": "tuple",
                  "type": "tuple"
                },
                {
                  "components": [
                    {
                      "internalType": "bytes32[]",
                      "name": "sideNodes",
                      "type": "bytes32[]"
                    },
                    {
                      "internalType": "uint256",
                      "name": "key",
                      "type": "uint256"
                    },
                    {
                      "internalType": "uint256",
                      "name": "numLeaves",
                      "type": "uint256"
                    }
                  ],
                  "internalType": "struct BinaryMerkleProof",
                  "name": "proof",
                  "type": "tuple"
                }
              ],
              "internalType": "struct AttestationProof",
              "name": "attestationProof",
              "type": "tuple"
            }
          ],
          "internalType": "struct ShareDigestsProof",
          "name": "_proof",
          "type": "tuple"
        },
        {
          "internalType": "bytes",
          "name": "_execLayerData",
          "type": "bytes"
        }
      ],
      "name": "relayShares",
      "outputs": [
        {
          "internalType": "bytes32",
          "name": "",
          "type": "bytes32"
        }
      ],
      "stateMutability": "nonpayable",
      "type": "function"
    }
  ],
  "transactionHash": "0x014b10539bd8c5f246283aba55440c0178b51daafa91ff2ce93d8a35da9f0d97",
  "args": [
    "0x58Df21fE097d4bE5dCf61e01d9ea3f6B81c2E1dB",
    "0xc3e209eb245Fd59c8586777b499d6A665DF3ABD2"
  ],
  "numDeployments": 7,
  "solcInputHash": "1135eba326c5f9210912954f5d077d55",
  "bytecode": "0x6080604052346100305761001a610014610146565b9061021e565b610022610035565b612efe6102378239612efe90f35b61003b565b60405190565b600080fd5b601f801991011690565b634e487b7160e01b600052604160045260246000fd5b9061006a90610040565b810190811060018060401b0382111761008257604052565b61004a565b9061009a610093610035565b9283610060565b565b600080fd5b60018060a01b031690565b6100b5906100a1565b90565b6100c1906100ac565b90565b6100cd816100b8565b036100d457565b600080fd5b905051906100e6826100c4565b565b6100f1906100ac565b90565b6100fd816100e8565b0361010457565b600080fd5b90505190610116826100f4565b565b9190604083820312610141578061013561013e92600086016100d9565b93602001610109565b90565b61009c565b6101646131358038038061015981610087565b928339810190610118565b9091565b60001b90565b9061017f60018060a01b0391610168565b9181191691161790565b90565b6101a061019b6101a5926100a1565b610189565b6100a1565b90565b6101b19061018c565b90565b6101bd906101a8565b90565b90565b906101d86101d36101df926101b4565b6101c0565b825461016e565b9055565b6101ec9061018c565b90565b6101f8906101e3565b90565b90565b9061021361020e61021a926101ef565b6101fb565b825461016e565b9055565b9061022d6102349260006101c3565b60016101fe565b56fe60806040526004361015610013575b610851565b61001e60003561002d565b63c417c6850361000e57610818565b60e01c90565b60405190565b600080fd5b600080fd5b600080fd5b60018060a01b031690565b61005c90610048565b90565b61006881610053565b0361006f57565b600080fd5b905035906100818261005f565b565b600080fd5b601f801991011690565b634e487b7160e01b600052604160045260246000fd5b906100b290610088565b810190811067ffffffffffffffff8211176100cc57604052565b610092565b906100e46100dd610033565b92836100a8565b565b600080fd5b600080fd5b67ffffffffffffffff81116101085760208091020190565b610092565b600080fd5b90565b61011e81610112565b0361012557565b600080fd5b9050359061013782610115565b565b9092919261014e610149826100f0565b6100d1565b938185526020808601920283019281841161018b57915b8383106101725750505050565b60208091610180848661012a565b815201920191610165565b61010d565b9080601f830112156101ae578160206101ab93359101610139565b90565b6100eb565b67ffffffffffffffff81116101cb5760208091020190565b610092565b90565b6101dc816101d0565b036101e357565b600080fd5b905035906101f5826101d3565b565b67ffffffffffffffff811161020f5760208091020190565b610092565b60ff60f81b1690565b61022681610214565b0361022d57565b600080fd5b9050359061023f8261021d565b565b63ffffffff191690565b61025481610241565b0361025b57565b600080fd5b9050359061026d8261024b565b565b91906040838203126102ab576102a49061028960406100d1565b936102978260008301610232565b6000860152602001610260565b6020830152565b610083565b919060a0838203126102fe576102f7906102ca60606100d1565b936102d8826000830161026f565b60008601526102ea826040830161026f565b602086015260800161012a565b6040830152565b610083565b90929192610318610313826101f7565b6100d1565b9381855260a060208601920283019281841161035757915b83831061033d5750505050565b602060a09161034c84866102b0565b815201920191610330565b61010d565b9080601f8301121561037a5781602061037793359101610303565b90565b6100eb565b9190916060818403126103e55761039660606100d1565b926103a481600084016101e8565b60008501526103b681602084016101e8565b6020850152604082013567ffffffffffffffff81116103e0576103d9920161035c565b6040830152565b6100e6565b610083565b9291906103fe6103f9826101b3565b6100d1565b93818552602080860192028101918383116104555781905b838210610424575050505050565b813567ffffffffffffffff811161045057602091610445878493870161037f565b815201910190610416565b6100eb565b61010d565b9080601f8301121561047857816020610475933591016103ea565b90565b6100eb565b67ffffffffffffffff81116104955760208091020190565b610092565b919091606081840312610501576104b160606100d1565b9260008201359167ffffffffffffffff83116104fc576104d6826104f5948301610190565b60008601526104e882602083016101e8565b60208601526040016101e8565b6040830152565b6100e6565b610083565b92919061051a6105158261047d565b6100d1565b93818552602080860192028101918383116105715781905b838210610540575050505050565b813567ffffffffffffffff811161056c57602091610561878493870161049a565b815201910190610532565b6100eb565b61010d565b9080601f830112156105945781602061059193359101610506565b90565b6100eb565b91906040838203126105d5576105ce906105b360406100d1565b936105c182600083016101e8565b600086015260200161012a565b6020830152565b610083565b919091608081840312610640576105f160606100d1565b926105ff81600084016101e8565b60008501526106118160208401610599565b6020850152606082013567ffffffffffffffff811161063b57610634920161049a565b6040830152565b6100e6565b610083565b91909160e0818403126107415761065c60c06100d1565b92600082013567ffffffffffffffff811161073c578161067d918401610190565b6000850152602082013567ffffffffffffffff811161073757816106a291840161045a565b60208501526106b4816040840161026f565b6040850152608082013567ffffffffffffffff811161073257816106d991840161035c565b606085015260a082013567ffffffffffffffff811161072d57816106fe918401610576565b608085015260c082013567ffffffffffffffff81116107285761072192016105da565b60a0830152565b6100e6565b6100e6565b6100e6565b6100e6565b6100e6565b610083565b600080fd5b909182601f830112156107855781359167ffffffffffffffff831161078057602001926001830284011161077b57565b61010d565b610746565b6100eb565b916060838303126107f0576107a28260008501610074565b92602081013567ffffffffffffffff81116107eb57836107c3918301610645565b92604082013567ffffffffffffffff81116107e6576107e2920161074b565b9091565b610043565b610043565b61003e565b6107fe90610112565b9052565b9190610816906000602085019401906107f5565b565b3461084c5761084861083761082e36600461078a565b92919091610c29565b61083f610033565b91829182610802565b0390f35b610039565b600080fd5b600090565b6108659051610112565b90565b60001c90565b60018060a01b031690565b61088561088a91610868565b61086e565b90565b6108979054610879565b90565b60209181520190565b60207f20426c6f6273747265616d5820636f6e74726163740000000000000000000000917f536861726573206e6f7420636f6d6d697474656420746f2043656c657374696160008201520152565b6108fe603560409261089a565b610907816108a3565b0190565b61092190602081019060008183039101526108f1565b90565b1561092b57565b610933610033565b62461bcd60e51b8152806109496004820161090b565b0390fd5b61095790516101d0565b90565b634e487b7160e01b600052603260045260246000fd5b5190565b9061097e82610970565b81101561098f576020809102010190565b61095a565b90565b90565b6109ae6109a96109b392610994565b610997565b6101d0565b90565b90565b6109cd6109c86109d2926109b6565b610997565b6101d0565b90565b634e487b7160e01b600052601160045260246000fd5b6109fa610a00919392936101d0565b926101d0565b8203918211610a0b57565b6109d5565b60018060a01b031690565b610a27610a2c91610868565b610a10565b90565b610a399054610a1b565b90565b610a50610a4b610a5592610048565b610997565b610048565b90565b610a6190610a3c565b90565b610a6d90610a58565b90565b610a7990610214565b9052565b610a8690610241565b9052565b90602080610aae93610aa460008201516000860190610a70565b0151910190610a7d565b565b610ab9906101d0565b9052565b60209181520190565b90826000939282370152565b9190610aec81610ae581610af195610abd565b8095610ac6565b610088565b0190565b92610b539795919694610b32610b3c92610b28610b4696610b1e60e08a019c60008b0190610a8a565b60408901906107f5565b6060870190610ab0565b6080850190610ab0565b60a0830190610ab0565b60c0818503910152610ad2565b90565b60e01b90565b90505190610b6982610115565b565b90602082820312610b8557610b8291600001610b5c565b90565b61003e565b610b9390610053565b9052565b5190565b60005b838110610baf575050906000910152565b806020918301518185015201610b9e565b610bdf610be8602093610bed93610bd681610b97565b93848093610abd565b95869101610b9b565b610088565b0190565b91610c1592610c0860408201936000830190610b8a565b6020818403910152610bc0565b90565b610c20610033565b3d6000823e3d90fd5b91610d3c6000602094610c3a610856565b50610d25610c50878060a089015101510161085b565b610c6e610c68610c60600161088d565b898491610da0565b50610924565b610d17604088015197610c89868b60a084015101510161094d565b9a610ce38b610cdc610cb28a610cab84880151610ca58361099a565b90610974565b510161094d565b94610cd6610cc68480840151930151610970565b610cd060016109b9565b906109eb565b90610974565b510161094d565b98610cf5610cf089610a2f565b610a64565b99631789cd63979b959d9390919293610d0c610033565b9e8f978f8901610af5565b8882018103825203886100a8565b610d47610d30610033565b97889687958694610b56565b845260048401610bf1565b03925af1908115610d8c57600091610d5e575b5090565b610d7f915060203d8111610d85575b610d7781836100a8565b810190610b6b565b38610d5a565b503d610d6d565b610c18565b600090565b600090565b151590565b91610dd2610dda9493610db1610d91565b50610dba610d96565b506060840151608085015160a0860151918593610f94565b949015610d9b565b610e0c57610e069293506000820151916020810151604082015190608060608401519301519394611228565b91909190565b505060009190565b610e1d90610a58565b90565b610e2981610d9b565b03610e3057565b600080fd5b90505190610e4282610e20565b565b90602082820312610e5e57610e5b91600001610e35565b90565b61003e565b610e6c906101d0565b9052565b610e7990610112565b9052565b90602080610ea193610e9760008201516000860190610e63565b0151910190610e70565b565b5190565b60209181520190565b60200190565b90610ec381602093610e70565b0190565b60200190565b90610eea610ee4610edd84610ea3565b8093610ea7565b92610eb0565b9060005b818110610efb5750505090565b909192610f14610f0e6001928651610eb6565b94610ec7565b9101919091610eee565b90610f5c90604080610f3f6060840160008701518582036000870152610ecd565b94610f5260208201516020860190610e63565b0151910190610e63565b90565b610f84610f91949293610f7a60808401956000850190610ab0565b6020830190610e7d565b6060818403910152610f1e565b90565b610fb66020919593949295610fa7610d91565b50610fb0610d96565b50610e14565b631f3302a990610fec610fcb6000860161094d565b92610ff7604086880151970151610fe0610033565b97889687958695610b56565b855260048501610f5f565b03915afa80156110635761101491600091611035575b5015610d9b565b61102a57611024929190916115ab565b91909190565b505050600090600490565b611056915060203d811161105c575b61104e81836100a8565b810190610e44565b3861100d565b503d611044565b610c18565b5190565b600161107891016101d0565b90565b61108a611090919392936101d0565b926101d0565b820180921161109b57565b6109d5565b634e487b7160e01b600052602160045260246000fd5b600b11156110c057565b6110a0565b906110cf826110b6565b565b906110e36110de836101f7565b6100d1565b918252565b6110f260606100d1565b90565b6110ff60406100d1565b90565b600090565b600090565b6111146110f5565b9060208083611121611102565b81520161112c611107565b81525050565b61113a61110c565b90565b600090565b61114a6110e8565b906020808084611158611132565b815201611163611132565b81520161116e61113d565b81525050565b61117c611142565b90565b60005b82811061118e57505050565b602090611199611174565b8184015201611182565b906111c86111b0836110d1565b926020806111be86936101f7565b920191039061117f565b565b906111d482610ea3565b8110156111e5576020809102010190565b61095a565b6111f460606100d1565b90565b52565b9061120490610112565b9052565b9061121282611068565b811015611223576020809102010190565b61095a565b94611255919461124d9161123a610d91565b50611243610d96565b50859190916115ab565b919015610d9b565b611516575061126383610970565b61127d61127761127285611068565b6101d0565b916101d0565b0361150a5761128c600061099a565b94611297600061099a565b955b866112b46112ae6112a988610970565b6101d0565b916101d0565b1015611309576112fd611303916112f76112db60206112d48a8d90610974565b510161094d565b6112f160006112ea8d8c610974565b510161094d565b906109eb565b9061107b565b9661106c565b95611299565b909295509390929361132c61132661132084610ea3565b926101d0565b916101d0565b036114fd579061133c600061099a565b611346600061099a565b5b8061136261135c61135789610970565b6101d0565b916101d0565b10156114ee5761139f611382602061137b898590610974565b510161094d565b61139960006113928a8690610974565b510161094d565b906109eb565b6113b585846113af86859061107b565b91611724565b949094806113cc6113c660006110c5565b916110c5565b036114de57506113e36113de86610ea3565b6111a3565b956113ee600061099a565b5b8061140a6114046113ff8a610ea3565b6101d0565b916101d0565b101561147a576114759061146e8a61145b8a61145261143361142e859388906111ca565b61085b565b9161144961143f6111ea565b95600087016111f7565b602085016111f7565b604083016111fa565b8a83916114688383611208565b52611208565b515061106c565b6113ef565b509450946114a86114ae919493946114938b8790611208565b51906114a08b8890610974565b51909161189a565b15610d9b565b6114ce576114c6916114c0919061107b565b9161106c565b929192611347565b5050505092505050600090600190565b9850965050505050505060009190565b50509350505050600190600090565b5092505050600090600790565b50505050600090600590565b94935050505060009190565b5190565b62ffffff191690565b90565b61153e61154391611526565b61152f565b9052565b90565b61155661155b91610112565b611547565b9052565b6020939261157f601d83611577829561158797611532565b018092611532565b01809261154a565b0190565b9061159582611522565b8110156115a6576020809102010190565b61095a565b9190916115b6610d91565b506115bf610d96565b506115c983611522565b6115e36115dd6115d884611068565b6101d0565b916101d0565b036116d1576115f2600061099a565b5b8061160e61160861160387611522565b6101d0565b916101d0565b10156116c5576116a76116a0611632600061162a868690611208565b510151611b2c565b61168b61164d6020611645888890611208565b510151611b2c565b9161167c61166860406116618a8a90611208565b510161085b565b611670610033565b9485936020850161155f565b602082018103825203826100a8565b859061169888869061158b565b519091611ba3565b5015610d9b565b6116b9576116b49061106c565b6115f3565b50505050600090600290565b50505050600190600090565b505050600090600690565b606090565b906116f36116ee836100f0565b6100d1565b918252565b369037565b9061172261170a836116e1565b9260208061171886936100f0565b92019103906116f8565b565b92909261172f6116dc565b50611738610d96565b508361174c611746856101d0565b916101d0565b1161181f578361176c61176661176184610ea3565b6101d0565b916101d0565b1180156117fd575b6117f35761178b6117868486906109eb565b6116fd565b91845b806117a161179b876101d0565b916101d0565b10156117e7576117e2906117dd6117c16117bc8684906111ca565b61085b565b6117d887916117d1858c906109eb565b90926111ca565b6111fa565b61106c565b61178e565b50935050905090600090565b9150915090600a90565b508261181961181361180e84610ea3565b6101d0565b916101d0565b11611774565b9150915090600990565b611832906101d0565b60001981146118415760010190565b6109d5565b90565b61185d61185861186292611846565b610997565b6101d0565b90565b61187461187a919392936101d0565b926101d0565b916118868382026101d0565b92818404149015171561189557565b6109d5565b6118a2610d91565b506118ad600061099a565b936118c36118be6040850151611068565b6111a3565b916118ce600061099a565b955b806118ee6118e86118e36000890161094d565b6101d0565b916101d0565b141580611a3d575b15611952576119468161191861194c9361191260008a0161094d565b90611da9565b61193e61192a60408a01518c90611208565b51888c916119388383611208565b52611208565b51509061107b565b96611829565b956118d0565b50939094506119c9915061198361197361196e6020860161094d565b611e7f565b61197d6002611849565b90611865565b8061199761199160016109b9565b916101d0565b10611a2d575b8391600091906000906119c36119bd6119b760009661099a565b9361099a565b9461099a565b94611f17565b505093905b846119ed6119e76119e26040870151611068565b6101d0565b916101d0565b1015611a1c57611a10611a1691611a0960408601518890611208565b51906121e0565b9461106c565b936119ce565b909350611a2a92915061234e565b90565b50611a3860016109b9565b61199d565b5086611a5d611a57611a526040890151611068565b6101d0565b916101d0565b106118f6565b600090565b611a729051610214565b90565b611a7f9051610241565b90565b90565b611a91611a9691610214565b611a82565b9052565b90565b611aa9611aae91610241565b611a9a565b9052565b600181611ac5611acd93601c9695611a85565b018092611a9d565b0190565b60200190565b611ae19051611526565b90565b1b90565b611b02611afd611af783610b97565b92611ad1565b611ad7565b90601d8110611b10575b5090565b611b259062ffffff1990601d03600802611ae4565b1638611b0c565b611b8090611b38611a63565b50611b7b611b546020611b4d60008501611a68565b9301611a75565b91611b6c611b60610033565b93849260208401611ab2565b602082018103825203826100a8565b611ae8565b90565b600090565b60061115611b9257565b6110a0565b90611ba182611b88565b565b9091611bad610d91565b50611bb6611b83565b50611bc36040840161094d565b611bd6611bd060016109b9565b916101d0565b1115600014611d2d57611bec6000840151610ea3565b611bff611bf9600061099a565b916101d0565b03611d22575b611c116020840161094d565b611c2e611c28611c236040870161094d565b6101d0565b916101d0565b1015611d1757611c3d9061254a565b91611c4b6000820151610ea3565b611c5e611c58600061099a565b916101d0565b14611ccc579182611c756020611c8e94950161094d565b916000611c846040840161094d565b91920151926125b9565b80611ca2611c9c6000611b97565b91611b97565b03611cc25750611cb5611cbb9192610112565b91610112565b1490600090565b9291505060009190565b6040611cd8910161094d565b611ceb611ce560016109b9565b916101d0565b14600014611d0d57611d00611d069192610112565b91610112565b1490600090565b5050600090600090565b505050600090600290565b505050600090600190565b611d3a6000840151610ea3565b611d6c611d66611d61611d4f6020880161094d565b611d5b6040890161094d565b906123f6565b6101d0565b916101d0565b0315611c0557505050600090600190565b600090565b611da190611d9b611d95611da6946101d0565b916101d0565b90611ae4565b6101d0565b90565b611dd0611dcb611de092611dbb611d7d565b50611dc5816127d7565b946109eb565b61285e565b611dda60016109b9565b906109eb565b81611df3611ded836101d0565b916101d0565b11611e0f5750611e0c90611e0760016109b9565b611d82565b90565b611e239150611e1e60016109b9565b611d82565b90565b15611e2d57565b600080fd5b60ff1690565b611e4c611e47611e51926109b6565b610997565b611e32565b90565b1c90565b611e7790611e71611e6b611e7c94611e32565b916101d0565b90611e54565b6101d0565b90565b611e87611d7d565b50611ea681611e9f611e9960016109b9565b916101d0565b1015611e26565b611ed6611eb28261285e565b611ed1611ecb600192611ec560016109b9565b906109eb565b916109b9565b611d82565b90611eea611ee483926101d0565b916101d0565b14611ef3575b90565b611f0790611f016001611e38565b90611e58565b611ef0565b611f14611142565b90565b91909293959495611f26611f0c565b50611f2f611d7d565b50611f38611d7d565b50611f41610d91565b50611f4d8583906109eb565b611f60611f5a60016109b9565b916101d0565b1461206c5784611f83611f7d611f786000870161094d565b6101d0565b916101d0565b11158015612046575b61202457611fc090611fa7611fa28785906109eb565b611e7f565b978491868590611fb8878d9061107b565b929394611f17565b91611fe3979391611fda959350949199909495969261107b565b91929394611f17565b94919092909294611ffd611ff76001610d9b565b91610d9b565b146120175761200b916121e0565b90929160009193929190565b5090929160009193929190565b939161203c95969350604091500151929091926128f7565b9193909293929190565b508161206561205f61205a6020870161094d565b6101d0565b916101d0565b1015611f8c565b93919061207f600083989597980161094d565b61209161208b836101d0565b916101d0565b111590816120de575b506120bb576120b1945060400151929091926128f7565b9193909293929190565b505090826120cd6120d4949391611068565b91926128b3565b9193909293929190565b90506120fd6120f76120f26020850161094d565b6101d0565b916101d0565b103861209a565b61210c61110c565b90565b60f81b90565b61212961212461212e926109b6565b61210f565b610214565b90565b61213b6001612115565b90565b9461218c6020601d9661218488839c9b9861217c826121949a61217461219c9f8061216c600192869f611a85565b018092611532565b018092611532565b01809261154a565b018092611532565b018092611532565b01809261154a565b0190565b60001b90565b905090565b6121d06121c7926020926121be81610b97565b948580936121a6565b93849101610b9b565b0190565b6121dd916121ab565b90565b906121e9611f0c565b50602060006122bd61220282860151838601519061293a565b9361220b612104565b506122218387015161221b6129cc565b90612a12565b831461230b576122ac6122326129cc565b965b61229e61223f612131565b9161224c87820151611b2c565b94612265604061225e8b850151611b2c565b930161085b565b61227189830151611b2c565b9061228a60406122838d860151611b2c565b940161085b565b93612293610033565b9889978d890161213e565b8682018103825203826100a8565b6122b4610033565b918291826121d4565b039060025afa1561230657612303906122fa6122da6000516121a0565b91936122f16122e76111ea565b95600087016111f7565b602085016111f7565b604083016111fa565b90565b610c18565b6123208382015161231a6129cc565b90612a12565b8314612334576122ac84870151965b612234565b6122ac612348858801518684015190612a42565b9661232f565b90612357610d91565b5061236b6000830151600083015190612a12565b806123b0575b918261237d575b505090565b6123a891925061239d6040612396816123a2940161085b565b940161085b565b610112565b91610112565b143880612378565b506123c46020830151602083015190612a12565b612371565b90565b6123e06123db6123e5926123c9565b610997565b6101d0565b90565b6123f36101006123cc565b90565b6123fe611d7d565b508161241361240d60016109b9565b916101d0565b11156124f7576124336124246123e8565b61242d84612a67565b906109eb565b9161245b60016124566124508661244a60016109b9565b906109eb565b916109b9565b611d82565b908261248261247c6124778561247160016109b9565b906109eb565b6101d0565b916101d0565b11156000146124915750505090565b90809293506124a96124a360016109b9565b916101d0565b146000146124c1575050506124be60016109b9565b90565b6124db6124e1926124d560019582906109eb565b926109eb565b906123f6565b906124ef6124f492916109b9565b61107b565b90565b5050612503600061099a565b90565b61251a61251561251f92610994565b61210f565b610214565b90565b61252c6000612506565b90565b806125406001926125479594611a85565b01906121ab565b90565b600061259b60209261255a610856565b5061258a612566612522565b61257c612571610033565b93849288840161252f565b8682018103825203826100a8565b612592610033565b918291826121d4565b039060025afa156125b4576125b16000516121a0565b90565b610c18565b9392936125c4610856565b506125cd611b83565b50816125e26125dc600061099a565b916101d0565b146127cc57816125fb6125f560016109b9565b916101d0565b1461279b5761260985610ea3565b61261c612616600061099a565b916101d0565b146127905761262a82611e7f565b61265c866000906126566126506126408b610ea3565b61264a60016109b9565b906109eb565b9261099a565b90612bd7565b91612665611b83565b5080612679612673846101d0565b916101d0565b1061270c576126a993929161269b6126a192612693610856565b5082906109eb565b936109eb565b8491926125b9565b9091816126bf6126b96000611b97565b91611b97565b036127045750506126f96126f4846126ee6126de6126fe969792610ea3565b6126e860016109b9565b906109eb565b906111ca565b61085b565b612d2c565b90600090565b915092509190565b61272c9350600096949692919250612722610856565b50918691926125b9565b90938161274261273c6000611b97565b91611b97565b0361278857505061277c61277761278293949261277161276182610ea3565b61276b60016109b9565b906109eb565b906111ca565b61085b565b90612d2c565b90600090565b915092509190565b505090915090600590565b505090916127a890610ea3565b6127bb6127b5600061099a565b916101d0565b036127c65790600090565b90600490565b505090915090600390565b6127df611d7d565b506127ea60016109b9565b916127f5600061099a565b5b8261280a612804600061099a565b916101d0565b141580612841575b1561283a5761282361283491611829565b9261282e6001611e38565b90611e58565b916127f6565b9150915090565b50838316612858612852600061099a565b916101d0565b14612812565b612866611d7d565b50612871600061099a565b5b81612886612880600061099a565b916101d0565b146128ae576128976128a891611829565b916128a26001611e38565b90611e58565b90612872565b905090565b916128e7929493946128c3611f0c565b506128cc611d7d565b506128d5611d7d565b506128de610d91565b50919091612d9e565b9391929093929193929193929190565b9161292b92949394612907611f0c565b50612910611d7d565b50612919611d7d565b50612922610d91565b50919091612d9e565b91929091929193929193929190565b90612943612104565b5061294f828290612e68565b60001461295a575090565b905090565b61296960406100d1565b90565b90565b61298361297e6129889261296c565b61210f565b610214565b90565b9061299590610214565b9052565b90565b60201b90565b6129b66129b16129bb92612999565b61299c565b610241565b90565b906129c890610241565b9052565b6129d4612104565b5060ff612a0f612a0660018060e01b03612a016129f86129f261295f565b9561296f565b6000860161298b565b6129a2565b602083016129be565b90565b612a38612a33612a2d612a3e93612a27610d91565b50611b2c565b93611b2c565b611526565b91611526565b1490565b90612a4b612104565b50612a57828290612e98565b600014612a62575090565b905090565b612a6f611d7d565b50612a7a600061099a565b5b612a8f6001612a8a83916109b9565b611d82565b612aa1612a9b846101d0565b916101d0565b1015612ac057612abb90612ab560016109b9565b9061107b565b612a7b565b612ad29150612acd6123e8565b6109eb565b90565b60207f207468616e205f656e6400000000000000000000000000000000000000000000917f496e76616c69642072616e67653a205f626567696e206973206772656174657260008201520152565b612b30602a60409261089a565b612b3981612ad5565b0190565b612b539060208101906000818303910152612b23565b90565b60207f65206f7574206f6620626f756e64730000000000000000000000000000000000917f496e76616c69642072616e67653a205f626567696e206f72205f656e6420617260008201520152565b612bb1602f60409261089a565b612bba81612b56565b0190565b612bd49060208101906000818303910152612ba4565b90565b929092612be26116dc565b5083612bf6612bf0856101d0565b916101d0565b11612cde5783612c16612c10612c0b84610ea3565b6101d0565b916101d0565b118015612cbc575b612c9a57612c35612c308486906109eb565b6116fd565b91845b80612c4b612c45876101d0565b916101d0565b1015612c9157612c8c90612c87612c6b612c668684906111ca565b61085b565b612c828791612c7b858c906109eb565b90926111ca565b6111fa565b61106c565b612c38565b50935050905090565b612ca2610033565b62461bcd60e51b815280612cb860048201612bbe565b0390fd5b5082612cd8612cd2612ccd84610ea3565b6101d0565b916101d0565b11612c1e565b612ce6610033565b62461bcd60e51b815280612cfc60048201612b3d565b0390fd5b60209392612d20600183612d188895612d2897611a85565b01809261154a565b01809261154a565b0190565b612d80602092612d6f600093612d40610856565b50612d61612d4c612131565b9193612d56610033565b948593898501612d00565b8682018103825203826100a8565b612d77610033565b918291826121d4565b039060025afa15612d9957612d966000516121a0565b90565b610c18565b9091612da8611f0c565b50612db1611d7d565b50612dba610d91565b50612dc482611068565b612dd7612dd1600061099a565b916101d0565b148015612e45575b908115612e28575b50612e1557612dfa612e0c918390611208565b5191612e0660016109b9565b9061107b565b91600091929190565b50612e1e611f0c565b9091600191929190565b9050612e3d612e3784926101d0565b916101d0565b101538612de7565b5082612e61612e5b612e5685611068565b6101d0565b916101d0565b1015612ddf565b612e8e612e89612e83612e9493612e7d610d91565b50611b2c565b93611b2c565b611526565b91611526565b1090565b612ebe612eb9612eb3612ec493612ead610d91565b50611b2c565b93611b2c565b611526565b91611526565b119056fea2646970667358221220e099a627e15a38b2cbfc7bce118d08198f6e92bbf50a995dd3d05da365deee7d64736f6c634300081a0033",
  "devdoc": {
    "kind": "dev",
    "methods": {
      "constructor": {
        "params": {
          "_blobstreamX": "BlobstreamX contract where Celestia commitments are being stored",
          "_inputBox": "InputBox contract to send inputs to Cartesi DApps"
        }
      },
      "relayShares(address,(bytes32[],(uint256,uint256,((bytes1,bytes28),(bytes1,bytes28),bytes32)[])[],(bytes1,bytes28),((bytes1,bytes28),(bytes1,bytes28),bytes32)[],(bytes32[],uint256,uint256)[],(uint256,(uint256,bytes32),(bytes32[],uint256,uint256))),bytes)": {
        "details": "Called by clients to securely process Celestia data in Cartesi DApps",
        "params": {
          "_dapp": "The address of the DApp",
          "_execLayerData": "Additional data to be interpreted by the execution layer",
          "_proof": "ShareDigestsProof object showing that a range of shares is committed to Celestia"
        },
        "returns": {
          "_0": "The hash of the input as returned by the Cartesi DApp's input box"
        }
      }
    },
    "title": "CelestiaRelay",
    "version": 1
  },
  "userdoc": {
    "kind": "user",
    "methods": {
      "constructor": {
        "notice": "Constructor"
      },
      "relayShares(address,(bytes32[],(uint256,uint256,((bytes1,bytes28),(bytes1,bytes28),bytes32)[])[],(bytes1,bytes28),((bytes1,bytes28),(bytes1,bytes28),bytes32)[],(bytes32[],uint256,uint256)[],(uint256,(uint256,bytes32),(bytes32[],uint256,uint256))),bytes)": {
        "notice": "Relay a pointer to the specified Celestia shares as an input to a DApp's input box"
      }
    },
    "notice": "Relays Celestia blocks as inputs to Cartesi DApps",
    "version": 1
  },
  "storageLayout": {
    "storage": [
      {
        "astId": 3137,
        "contract": "contracts/CelestiaRelay.sol:CelestiaRelay",
        "label": "inputBox",
        "offset": 0,
        "slot": "0",
        "type": "t_contract(IInputBox)49"
      },
      {
        "astId": 3140,
        "contract": "contracts/CelestiaRelay.sol:CelestiaRelay",
        "label": "blobstreamX",
        "offset": 0,
        "slot": "1",
        "type": "t_contract(IDAOracle)87"
      }
    ],
    "types": {
      "t_contract(IDAOracle)87": {
        "encoding": "inplace",
        "label": "contract IDAOracle",
        "numberOfBytes": "20"
      },
      "t_contract(IInputBox)49": {
        "encoding": "inplace",
        "label": "contract IInputBox",
        "numberOfBytes": "20"
      }
    }
  }
}