{
  "address": "0x159876e08d642c2Fe9a52804756189E1DbF497F0",
  "abi": [
    {
      "anonymous": false,
      "inputs": [
        {
          "indexed": true,
          "internalType": "contract IConsensus",
          "name": "consensus",
          "type": "address"
        },
        {
          "indexed": false,
          "internalType": "contract IInputBox",
          "name": "inputBox",
          "type": "address"
        },
        {
          "indexed": false,
          "internalType": "contract IPortal[]",
          "name": "portals",
          "type": "address[]"
        },
        {
          "indexed": false,
          "internalType": "address",
          "name": "appOwner",
          "type": "address"
        },
        {
          "indexed": false,
          "internalType": "bytes32",
          "name": "templateHash",
          "type": "bytes32"
        },
        {
          "indexed": false,
          "internalType": "contract Application",
          "name": "appContract",
          "type": "address"
        }
      ],
      "name": "ApplicationCreated",
      "type": "event"
    },
    {
      "inputs": [
        {
          "internalType": "contract IConsensus",
          "name": "consensus",
          "type": "address"
        },
        {
          "internalType": "contract IInputBox",
          "name": "inputBox",
          "type": "address"
        },
        {
          "internalType": "contract IPortal[]",
          "name": "portals",
          "type": "address[]"
        },
        {
          "internalType": "address",
          "name": "appOwner",
          "type": "address"
        },
        {
          "internalType": "bytes32",
          "name": "templateHash",
          "type": "bytes32"
        },
        {
          "internalType": "bytes32",
          "name": "salt",
          "type": "bytes32"
        }
      ],
      "name": "calculateApplicationAddress",
      "outputs": [
        {
          "internalType": "address",
          "name": "",
          "type": "address"
        }
      ],
      "stateMutability": "view",
      "type": "function"
    },
    {
      "inputs": [
        {
          "internalType": "contract IConsensus",
          "name": "consensus",
          "type": "address"
        },
        {
          "internalType": "contract IInputBox",
          "name": "inputBox",
          "type": "address"
        },
        {
          "internalType": "contract IPortal[]",
          "name": "portals",
          "type": "address[]"
        },
        {
          "internalType": "address",
          "name": "appOwner",
          "type": "address"
        },
        {
          "internalType": "bytes32",
          "name": "templateHash",
          "type": "bytes32"
        },
        {
          "internalType": "bytes32",
          "name": "salt",
          "type": "bytes32"
        }
      ],
      "name": "newApplication",
      "outputs": [
        {
          "internalType": "contract Application",
          "name": "",
          "type": "address"
        }
      ],
      "stateMutability": "nonpayable",
      "type": "function"
    },
    {
      "inputs": [
        {
          "internalType": "contract IConsensus",
          "name": "consensus",
          "type": "address"
        },
        {
          "internalType": "contract IInputBox",
          "name": "inputBox",
          "type": "address"
        },
        {
          "internalType": "contract IPortal[]",
          "name": "portals",
          "type": "address[]"
        },
        {
          "internalType": "address",
          "name": "appOwner",
          "type": "address"
        },
        {
          "internalType": "bytes32",
          "name": "templateHash",
          "type": "bytes32"
        }
      ],
      "name": "newApplication",
      "outputs": [
        {
          "internalType": "contract Application",
          "name": "",
          "type": "address"
        }
      ],
      "stateMutability": "nonpayable",
      "type": "function"
    }
  ],
  "args": [],
  "numDeployments": 1,
  "bytecode": "0x608060405234801561001057600080fd5b50611cea806100206000396000f3fe60806040523480156200001157600080fd5b5060043610620000465760003560e01c806303557d67146200004b5780635c44eda4146200007e578063f63adead1462000095575b600080fd5b620000626200005c366004620003aa565b620000ac565b6040516001600160a01b03909116815260200160405180910390f35b620000626200008f3660046200043b565b6200014d565b62000062620000a6366004620003aa565b620001e8565b600080828888888888604051620000c390620002b5565b620000d395949392919062000509565b8190604051809103906000f5905080158015620000f4573d6000803e3d6000fd5b509050876001600160a01b03167ff0a2d32dae19c50fb841822aba94a3a9ba00be0584f7d8229795d66d9532395288888888866040516200013a95949392919062000548565b60405180910390a2979650505050505050565b60008086868686866040516200016390620002b5565b6200017395949392919062000509565b604051809103906000f08015801562000190573d6000803e3d6000fd5b509050866001600160a01b03167ff0a2d32dae19c50fb841822aba94a3a9ba00be0584f7d8229795d66d953239528787878786604051620001d695949392919062000548565b60405180910390a29695505050505050565b60006200026a82604051806020016200020190620002b5565b601f1982820381018352601f9091011660408190526200022e908b908b908b908b908b9060200162000509565b60408051601f19818403018152908290526200024e9291602001620005bd565b6040516020818303038152906040528051906020012062000275565b979650505050505050565b6000620002848383306200028b565b9392505050565b6000604051836040820152846020820152828152600b8101905060ff815360559020949350505050565b6116d680620005df83390190565b6001600160a01b0381168114620002d957600080fd5b50565b634e487b7160e01b600052604160045260246000fd5b8035620002ff81620002c3565b919050565b600082601f8301126200031657600080fd5b8135602067ffffffffffffffff80831115620003365762000336620002dc565b8260051b604051601f19603f830116810181811084821117156200035e576200035e620002dc565b60405293845260208187018101949081019250878511156200037f57600080fd5b6020870191505b848210156200026a576200039a82620002f2565b8352918301919083019062000386565b60008060008060008060c08789031215620003c457600080fd5b8635620003d181620002c3565b95506020870135620003e381620002c3565b9450604087013567ffffffffffffffff8111156200040057600080fd5b6200040e89828a0162000304565b94505060608701356200042181620002c3565b9598949750929560808101359460a0909101359350915050565b600080600080600060a086880312156200045457600080fd5b85356200046181620002c3565b945060208601356200047381620002c3565b9350604086013567ffffffffffffffff8111156200049057600080fd5b6200049e8882890162000304565b9350506060860135620004b181620002c3565b949793965091946080013592915050565b60008151808452602080850194506020840160005b83811015620004fe5781516001600160a01b031687529582019590820190600101620004d7565b509495945050505050565b600060018060a01b038088168352808716602084015260a060408401526200053560a0840187620004c2565b9416606083015250608001529392505050565b600060018060a01b03808816835260a060208401526200056c60a0840188620004c2565b9581166040840152606083019490945250911660809091015292915050565b6000815160005b81811015620005ae576020818501810151868301520162000592565b50600093019283525090919050565b6000620005d6620005cf83866200058b565b846200058b565b94935050505056fe60c06040523480156200001157600080fd5b50604051620016d6380380620016d68339810160408190526200003491620001a5565b816001600160a01b0381166200006457604051631e4fbdf760e01b81526000600482015260240160405180910390fd5b6200006f8162000114565b50600180556080819052600380546001600160a01b0319166001600160a01b0387811691909117909155841660a05260005b835181101562000108576004848281518110620000c257620000c2620002c2565b60209081029190910181015182546001808201855560009485529290932090920180546001600160a01b0319166001600160a01b039093169290921790915501620000a1565b505050505050620002d8565b600080546001600160a01b038381166001600160a01b0319831681178455604051919092169283917f8be0079c531659141344cd1fd0a4f28419497f9722a3daafe3b4186f6b6457e09190a35050565b6001600160a01b03811681146200017a57600080fd5b50565b634e487b7160e01b600052604160045260246000fd5b8051620001a08162000164565b919050565b600080600080600060a08688031215620001be57600080fd5b8551620001cb8162000164565b80955050602080870151620001e08162000164565b60408801519095506001600160401b0380821115620001fe57600080fd5b818901915089601f8301126200021357600080fd5b8151818111156200022857620002286200017d565b8060051b604051601f19603f830116810181811085821117156200025057620002506200017d565b60405291825284820192508381018501918c8311156200026f57600080fd5b938501935b828510156200029857620002888562000193565b8452938501939285019262000274565b809850505050505050620002af6060870162000193565b9150608086015190509295509295909350565b634e487b7160e01b600052603260045260246000fd5b60805160a0516113d8620002fe60003960006101060152600061024b01526113d86000f3fe6080604052600436106100eb5760003560e01c806361b12c661161008a578063dbe1a6eb11610059578063dbe1a6eb146102d3578063f23a6e61146102f3578063f2fde38b1461031f578063fc4116831461033f57600080fd5b806361b12c6614610239578063715018a6146102745780638da5cb5b14610289578063bc197c81146102a757600080fd5b8063150b7a02116100c6578063150b7a0214610195578063179e740b146101d957806324523192146101f75780634dcea1551461021757600080fd5b8062aace9a146100f757806301ffc9a714610143578063108e8c1d1461017357600080fd5b366100f257005b600080fd5b34801561010357600080fd5b507f00000000000000000000000000000000000000000000000000000000000000005b6040516001600160a01b0390911681526020015b60405180910390f35b34801561014f57600080fd5b5061016361015e366004610c9f565b61035f565b604051901515815260200161013a565b34801561017f57600080fd5b506101886103a5565b60405161013a9190610cc9565b3480156101a157600080fd5b506101c06101b0366004610de0565b630a85bd0160e11b949350505050565b6040516001600160e01b0319909116815260200161013a565b3480156101e557600080fd5b506003546001600160a01b0316610126565b34801561020357600080fd5b50610163610212366004610e4b565b610407565b34801561022357600080fd5b50610237610232366004610e6d565b610437565b005b34801561024557600080fd5b506040517f0000000000000000000000000000000000000000000000000000000000000000815260200161013a565b34801561028057600080fd5b5061023761051e565b34801561029557600080fd5b506000546001600160a01b0316610126565b3480156102b357600080fd5b506101c06102c2366004610f87565b63bc197c8160e01b95945050505050565b3480156102df57600080fd5b506102376102ee366004610e6d565b610532565b3480156102ff57600080fd5b506101c061030e366004611034565b63f23a6e6160e01b95945050505050565b34801561032b57600080fd5b5061023761033a36600461109c565b610726565b34801561034b57600080fd5b5061023761035a36600461109c565b610764565b60006001600160e01b031982166328373a4560e01b148061039057506001600160e01b03198216630a85bd0160e11b145b8061039f575061039f826107c0565b92915050565b606060048054806020026020016040519081016040528092919081815260200182805480156103fd57602002820191906000526020600020905b81546001600160a01b031681526001909101906020018083116103df575b5050505050905090565b6000818152600260209081526040808320600886901c8452909152812054600160ff85161b1615155b9392505050565b6000610442826107f5565b905061044e8282610830565b6104785760405163fef5040960e01b815261046f9082908490600401611102565b60405180910390fd5b6000848460405161048a929190611116565b604051908190039020905061049f8382610875565b6104bc5760405163017c689560e61b815260040160405180910390fd5b6104c5836108cc565b6104e257604051634371daa160e11b815260040160405180910390fd5b60006104ed84610927565b90506104f9848261099b565b61051657604051636fbd3b7160e11b815260040160405180910390fd5b505050505050565b6105266109e1565b6105306000610a0e565b565b61053a610a5e565b610545838383610437565b6000610550826107f5565b905060006105646080840160608501611126565b6001600160401b038116600090815260026020526040902090915060048510156105a5578585604051636942600f60e11b815260040161046f92919061116a565b60006105b4600482888a61117e565b6105bd916111a8565b90503660006105cf886004818c61117e565b909250905063dc857e9160e01b6001600160e01b031984160161063957600886901c600090815260208590526040902054600160ff88161b161561062a578888604051637b97a6bb60e01b815260040161046f92919061116a565b6106348282610a88565b6106b6565b63efcde17560e01b6001600160e01b031984160161069957600886901c600090815260208590526040902054600160ff88161b161561068f578888604051637b97a6bb60e01b815260040161046f92919061116a565b6106348282610abb565b8888604051636942600f60e11b815260040161046f92919061116a565b600886901c60009081526020859052604090208054600160ff89161b1790557fd39d8e3e610251d36b5464d9cabbd8fa8319fe6cff76941ce041ecf04669726f86868b8b60405161070a94939291906111d8565b60405180910390a150505050505061072160018055565b505050565b61072e6109e1565b6001600160a01b03811661075857604051631e4fbdf760e01b81526000600482015260240161046f565b61076181610a0e565b50565b61076c6109e1565b600380546001600160a01b0319166001600160a01b0383169081179091556040519081527f4991c6f37185659e276ff918a96f3e20e6c5abcd8c9aab450dc19c2f7ad35cb59060200160405180910390a150565b60006001600160e01b03198216630271189760e51b148061039f57506301ffc9a760e01b6001600160e01b031983161461039f565b60006108076060830160408401611126565b6001600160401b031661081d6020840184611126565b6001600160401b031661039f919061120f565b6000816108406020850185611126565b6001600160401b03161115801561043057506108626040840160208501611126565b6001600160401b03169091111592915050565b6000368161088660e0860186611230565b90925090506010811480156108c357506108bc6108a96080870160608801611126565b839083906001600160401b031687610ae9565b8560800135145b95945050505050565b600036816108de610100850185611230565b909250905060208114801561091f57506109186109016060860160408701611126565b839083906001600160401b03166080880135610ae9565b8460a00135145b949350505050565b60035460405163307d66bf60e21b81526000916001600160a01b03169063c1f59afc9061095a9030908690600401611280565b602060405180830381865afa158015610977573d6000803e3d6000fd5b505050506040513d601f19601f8201168201806040525081019061039f919061129d565b60008260a001358360c001356040516020016109c1929190918252602082015260400190565b604051602081830303815290604052805190602001208214905092915050565b6000546001600160a01b031633146105305760405163118cdaa760e01b815233600482015260240161046f565b600080546001600160a01b038381166001600160a01b0319831681178455604051919092169283917f8be0079c531659141344cd1fd0a4f28419497f9722a3daafe3b4186f6b6457e09190a35050565b600260015403610a8157604051633ee5aeb560e01b815260040160405180910390fd5b6002600155565b6000806060610a99848601866112b6565b91945092509050610ab46001600160a01b0384168383610baa565b5050505050565b60006060610acb8385018561130e565b9092509050610ae36001600160a01b03831682610c1d565b50505050565b600083815b81811015610b51576000878783818110610b0a57610b0a61135d565b90506020020135905085600116600003610b335760008581526020829052604090209450610b44565b600081815260208690526040902094505b50600194851c9401610aee565b508315610ba05760405162461bcd60e51b815260206004820181905260248201527f4c69624d65726b6c6533323a20696e646578206f7574206f6620626f756e6473604482015260640161046f565b5090949350505050565b60006060846001600160a01b03168484604051610bc79190611373565b60006040518083038185875af1925050503d8060008114610c04576040519150601f19603f3d011682016040523d82523d6000602084013e610c09565b606091505b50909250905081610ab457610ab481610c89565b60006060836001600160a01b031683604051610c399190611373565b600060405180830381855af49150503d8060008114610c74576040519150601f19603f3d011682016040523d82523d6000602084013e610c79565b606091505b50909250905081610ae357610ae3815b8051600003610c9757600080fd5b805181602001fd5b600060208284031215610cb157600080fd5b81356001600160e01b03198116811461043057600080fd5b6020808252825182820181905260009190848201906040850190845b81811015610d0a5783516001600160a01b031683529284019291840191600101610ce5565b50909695505050505050565b6001600160a01b038116811461076157600080fd5b634e487b7160e01b600052604160045260246000fd5b604051601f8201601f191681016001600160401b0381118282101715610d6957610d69610d2b565b604052919050565b600082601f830112610d8257600080fd5b81356001600160401b03811115610d9b57610d9b610d2b565b610dae601f8201601f1916602001610d41565b818152846020838601011115610dc357600080fd5b816020850160208301376000918101602001919091529392505050565b60008060008060808587031215610df657600080fd5b8435610e0181610d16565b93506020850135610e1181610d16565b92506040850135915060608501356001600160401b03811115610e3357600080fd5b610e3f87828801610d71565b91505092959194509250565b60008060408385031215610e5e57600080fd5b50508035926020909101359150565b600080600060408486031215610e8257600080fd5b83356001600160401b0380821115610e9957600080fd5b818601915086601f830112610ead57600080fd5b813581811115610ebc57600080fd5b876020828501011115610ece57600080fd5b602092830195509350908501359080821115610ee957600080fd5b5084016101208187031215610efd57600080fd5b809150509250925092565b600082601f830112610f1957600080fd5b813560206001600160401b03821115610f3457610f34610d2b565b8160051b610f43828201610d41565b9283528481018201928281019087851115610f5d57600080fd5b83870192505b84831015610f7c57823582529183019190830190610f63565b979650505050505050565b600080600080600060a08688031215610f9f57600080fd5b8535610faa81610d16565b94506020860135610fba81610d16565b935060408601356001600160401b0380821115610fd657600080fd5b610fe289838a01610f08565b94506060880135915080821115610ff857600080fd5b61100489838a01610f08565b9350608088013591508082111561101a57600080fd5b5061102788828901610d71565b9150509295509295909350565b600080600080600060a0868803121561104c57600080fd5b853561105781610d16565b9450602086013561106781610d16565b9350604086013592506060860135915060808601356001600160401b0381111561109057600080fd5b61102788828901610d71565b6000602082840312156110ae57600080fd5b813561043081610d16565b80356001600160401b03811681146110d057600080fd5b919050565b6001600160401b03806110e7836110b9565b168352806110f7602084016110b9565b166020840152505050565b8281526060810161043060208301846110d5565b8183823760009101908152919050565b60006020828403121561113857600080fd5b610430826110b9565b81835281816020850137506000828201602090810191909152601f909101601f19169091010190565b60208152600061091f602083018486611141565b6000808585111561118e57600080fd5b8386111561119b57600080fd5b5050820193919092039150565b6001600160e01b031981358181169160048510156111d05780818660040360031b1b83161692505b505092915050565b60006001600160401b03808716835280861660208401525060606040830152611205606083018486611141565b9695505050505050565b8082018082111561039f57634e487b7160e01b600052601160045260246000fd5b6000808335601e1984360301811261124757600080fd5b8301803591506001600160401b0382111561126157600080fd5b6020019150600581901b360382131561127957600080fd5b9250929050565b6001600160a01b03831681526060810161043060208301846110d5565b6000602082840312156112af57600080fd5b5051919050565b6000806000606084860312156112cb57600080fd5b83356112d681610d16565b92506020840135915060408401356001600160401b038111156112f857600080fd5b61130486828701610d71565b9150509250925092565b6000806040838503121561132157600080fd5b823561132c81610d16565b915060208301356001600160401b0381111561134757600080fd5b61135385828601610d71565b9150509250929050565b634e487b7160e01b600052603260045260246000fd5b6000825160005b81811015611394576020818601810151858301520161137a565b50600092019182525091905056fea2646970667358221220065690aa558c226601c6855f13ad5e36d71a9c4c8cc49aaf9060519b30f496f864736f6c63430008170033a26469706673582212205c56bf9fd67eefa5bc4d2f1ef0cd3f63e53e830767c0b87db42e328955aa10a564736f6c63430008170033",
  "devdoc": {
    "events": {
      "ApplicationCreated(address,address,address[],address,bytes32,address)": {
        "details": "MUST be triggered on a successful call to `newApplication`.",
        "params": {
          "appContract": "The application contract",
          "appOwner": "The initial application owner",
          "consensus": "The initial consensus contract",
          "inputBox": "The input box contract",
          "portals": "The portals supported by the application",
          "templateHash": "The initial machine state hash"
        }
      }
    },
    "kind": "dev",
    "methods": {
      "calculateApplicationAddress(address,address,address[],address,bytes32,bytes32)": {
        "details": "Beware that only the `newApplication` function with the `salt` parameter      is able to deterministically deploy an application.",
        "params": {
          "appOwner": "The initial application owner",
          "consensus": "The initial consensus contract",
          "inputBox": "The input box contract",
          "portals": "The portals supported by the application",
          "salt": "The salt used to deterministically generate the application contract address",
          "templateHash": "The initial machine state hash"
        },
        "returns": {
          "_0": "The deterministic application contract address"
        }
      },
      "newApplication(address,address,address[],address,bytes32)": {
        "details": "On success, MUST emit an `ApplicationCreated` event.",
        "params": {
          "appOwner": "The initial application owner",
          "consensus": "The initial consensus contract",
          "inputBox": "The input box contract",
          "portals": "The portals supported by the application",
          "templateHash": "The initial machine state hash"
        },
        "returns": {
          "_0": "The application"
        }
      },
      "newApplication(address,address,address[],address,bytes32,bytes32)": {
        "details": "On success, MUST emit an `ApplicationCreated` event.",
        "params": {
          "appOwner": "The initial application owner",
          "consensus": "The initial consensus contract",
          "inputBox": "The input box contract",
          "portals": "The portals supported by the application",
          "salt": "The salt used to deterministically generate the application contract address",
          "templateHash": "The initial machine state hash"
        },
        "returns": {
          "_0": "The application"
        }
      }
    },
    "title": "Application Factory",
    "version": 1
  },
  "userdoc": {
    "events": {
      "ApplicationCreated(address,address,address[],address,bytes32,address)": {
        "notice": "A new application was deployed."
      }
    },
    "kind": "user",
    "methods": {
      "calculateApplicationAddress(address,address,address[],address,bytes32,bytes32)": {
        "notice": "Calculate the address of an application contract to be deployed deterministically."
      },
      "newApplication(address,address,address[],address,bytes32)": {
        "notice": "Deploy a new application."
      },
      "newApplication(address,address,address[],address,bytes32,bytes32)": {
        "notice": "Deploy a new application deterministically."
      }
    },
    "notice": "Allows anyone to reliably deploy a new `Application` contract.",
    "version": 1
  }
}