{
  "address": "0x1733b13aAbcEcf3464157Bd7954Bd7e4Cf91Ce22",
  "abi": [
    {
      "inputs": [
        {
          "internalType": "contract IInputBox",
          "name": "inputBox",
          "type": "address"
        }
      ],
      "stateMutability": "nonpayable",
      "type": "constructor"
    },
    {
      "inputs": [],
      "name": "EtherTransferFailed",
      "type": "error"
    },
    {
      "inputs": [
        {
          "internalType": "address",
          "name": "appContract",
          "type": "address"
        },
        {
          "internalType": "bytes",
          "name": "execLayerData",
          "type": "bytes"
        }
      ],
      "name": "depositEther",
      "outputs": [],
      "stateMutability": "payable",
      "type": "function"
    },
    {
      "inputs": [],
      "name": "getInputBox",
      "outputs": [
        {
          "internalType": "contract IInputBox",
          "name": "",
          "type": "address"
        }
      ],
      "stateMutability": "view",
      "type": "function"
    },
    {
      "inputs": [
        {
          "internalType": "bytes4",
          "name": "interfaceId",
          "type": "bytes4"
        }
      ],
      "name": "supportsInterface",
      "outputs": [
        {
          "internalType": "bool",
          "name": "",
          "type": "bool"
        }
      ],
      "stateMutability": "view",
      "type": "function"
    }
  ],
  "args": [
    "0x58Df21fE097d4bE5dCf61e01d9ea3f6B81c2E1dB"
  ],
  "numDeployments": 8,
  "bytecode": "0x60a060405234801561001057600080fd5b506040516104a93803806104a983398101604081905261002f91610040565b6001600160a01b0316608052610070565b60006020828403121561005257600080fd5b81516001600160a01b038116811461006957600080fd5b9392505050565b608051610418610091600039600081816052015261018d01526104186000f3fe6080604052600436106100335760003560e01c8062aace9a1461003857806301ffc9a714610081578063938c054f146100b1575b600080fd5b34801561004457600080fd5b506040516001600160a01b037f00000000000000000000000000000000000000000000000000000000000000001681526020015b60405180910390f35b34801561008d57600080fd5b506100a161009c366004610275565b6100c6565b6040519015158152602001610078565b6100c46100bf3660046102a6565b6100f1565b005b60006001600160e01b0319821663938c054f60e01b14806100eb57506100eb8261020f565b92915050565b6000836001600160a01b03163460405160006040518083038185875af1925050503d806000811461013e576040519150601f19603f3d011682016040523d82523d6000602084013e610143565b606091505b505090508061016557604051630ce8f45160e31b815260040160405180910390fd5b600061017333348686610243565b604051631789cd6360e01b81529091506001600160a01b037f00000000000000000000000000000000000000000000000000000000000000001690631789cd63906101c49088908590600401610337565b6020604051808303816000875af11580156101e3573d6000803e3d6000fd5b505050506040513d601f19601f820116820180604052508101906102079190610396565b505050505050565b60006001600160e01b031982166255674d60e11b14806100eb57506301ffc9a760e01b6001600160e01b03198316146100eb565b60608484848460405160200161025c94939291906103af565b6040516020818303038152906040529050949350505050565b60006020828403121561028757600080fd5b81356001600160e01b03198116811461029f57600080fd5b9392505050565b6000806000604084860312156102bb57600080fd5b83356001600160a01b03811681146102d257600080fd5b9250602084013567ffffffffffffffff808211156102ef57600080fd5b818601915086601f83011261030357600080fd5b81358181111561031257600080fd5b87602082850101111561032457600080fd5b6020830194508093505050509250925092565b60018060a01b03831681526000602060406020840152835180604085015260005b8181101561037457858101830151858201606001528201610358565b506000606082860101526060601f19601f830116850101925050509392505050565b6000602082840312156103a857600080fd5b5051919050565b6bffffffffffffffffffffffff198560601b1681528360148201528183603483013760009101603401908152939250505056fea264697066735822122086c0512a270177f2827d17a48872ca05c429e974c2c035608ffb5424eee3838d64736f6c63430008170033",
  "devdoc": {
    "kind": "dev",
    "methods": {
      "constructor": {
        "params": {
          "inputBox": "The input box used by the portal"
        }
      },
      "depositEther(address,bytes)": {
        "details": "Any Ether sent through this function will be forwarded to the application contract.      If the transfer fails, an `EtherTransferFailed` error will be raised.",
        "params": {
          "appContract": "The application contract address",
          "execLayerData": "Additional data to be interpreted by the execution layer"
        }
      },
      "getInputBox()": {
        "returns": {
          "_0": "The input box"
        }
      }
    },
    "title": "Ether Portal",
    "version": 1
  },
  "userdoc": {
    "errors": {
      "EtherTransferFailed()": [
        {
          "notice": "Failed to transfer Ether to application"
        }
      ]
    },
    "kind": "user",
    "methods": {
      "constructor": {
        "notice": "Constructs the portal."
      },
      "depositEther(address,bytes)": {
        "notice": "Transfer Ether to an application contract and add an input to the application's input box to signal such operation."
      },
      "getInputBox()": {
        "notice": "Get the input box used by this portal."
      }
    },
    "notice": "This contract allows anyone to perform transfers of Ether to an application contract while informing the off-chain machine.",
    "version": 1
  }
}