{
  "address": "0xFc6c1Fc6546898eb2f9cb7De360B3eA52E601D46",
  "abi": [
    {
      "anonymous": false,
      "inputs": [
        {
          "indexed": false,
          "internalType": "address",
          "name": "authorityOwner",
          "type": "address"
        },
        {
          "indexed": false,
          "internalType": "contract Authority",
          "name": "authority",
          "type": "address"
        }
      ],
      "name": "AuthorityCreated",
      "type": "event"
    },
    {
      "inputs": [
        {
          "internalType": "address",
          "name": "authorityOwner",
          "type": "address"
        },
        {
          "internalType": "bytes32",
          "name": "salt",
          "type": "bytes32"
        }
      ],
      "name": "calculateAuthorityAddress",
      "outputs": [
        {
          "internalType": "address",
          "name": "",
          "type": "address"
        }
      ],
      "stateMutability": "view",
      "type": "function"
    },
    {
      "inputs": [
        {
          "internalType": "address",
          "name": "authorityOwner",
          "type": "address"
        },
        {
          "internalType": "bytes32",
          "name": "salt",
          "type": "bytes32"
        }
      ],
      "name": "newAuthority",
      "outputs": [
        {
          "internalType": "contract Authority",
          "name": "",
          "type": "address"
        }
      ],
      "stateMutability": "nonpayable",
      "type": "function"
    },
    {
      "inputs": [
        {
          "internalType": "address",
          "name": "authorityOwner",
          "type": "address"
        }
      ],
      "name": "newAuthority",
      "outputs": [
        {
          "internalType": "contract Authority",
          "name": "",
          "type": "address"
        }
      ],
      "stateMutability": "nonpayable",
      "type": "function"
    }
  ],
  "transactionHash": "0xdc946ee63734443b81ead99c41c9a40e65970bcf213fea04a97b69197ec3a808",
  "args": [],
  "numDeployments": 1,
  "bytecode": "0x608060405234801561001057600080fd5b506108f0806100206000396000f3fe608060405234801561001057600080fd5b50600436106100405760003560e01c80629c5784146100455780635a3f27d314610074578063b3a51b8414610087575b600080fd5b610058610053366004610288565b61009a565b6040516001600160a01b03909116815260200160405180910390f35b610058610082366004610288565b610115565b6100586100953660046102b2565b6101a4565b600061010e82604051806020016100b09061025f565b601f1982820381018352601f9091011660408181526001600160a01b03881660208301520160408051601f19818403018152908290526100f392916020016102fd565b6040516020818303038152906040528051906020012061022d565b9392505050565b60008082846040516101269061025f565b6001600160a01b0390911681526020018190604051809103906000f5905080158015610156573d6000803e3d6000fd5b50604080516001600160a01b038088168252831660208201529192507f0fb2d916aa6a78060ff9e89d89d62797c6668818dec04969013c5098754380ec910160405180910390a19392505050565b600080826040516101b49061025f565b6001600160a01b039091168152602001604051809103906000f0801580156101e0573d6000803e3d6000fd5b50604080516001600160a01b038087168252831660208201529192507f0fb2d916aa6a78060ff9e89d89d62797c6668818dec04969013c5098754380ec910160405180910390a192915050565b600061010e8383306000604051836040820152846020820152828152600b8101905060ff815360559020949350505050565b6105a08061031b83390190565b80356001600160a01b038116811461028357600080fd5b919050565b6000806040838503121561029b57600080fd5b6102a48361026c565b946020939093013593505050565b6000602082840312156102c457600080fd5b61010e8261026c565b6000815160005b818110156102ee57602081850181015186830152016102d4565b50600093019283525090919050565b600061031261030c83866102cd565b846102cd565b94935050505056fe608060405234801561001057600080fd5b506040516105a03803806105a083398101604081905261002f916100c0565b806001600160a01b03811661005e57604051631e4fbdf760e01b81526000600482015260240160405180910390fd5b6100678161006e565b50506100f0565b600180546001600160a01b038381166001600160a01b0319831681179093556040519116919082907f8be0079c531659141344cd1fd0a4f28419497f9722a3daafe3b4186f6b6457e090600090a35050565b6000602082840312156100d257600080fd5b81516001600160a01b03811681146100e957600080fd5b9392505050565b6104a1806100ff6000396000f3fe608060405234801561001057600080fd5b50600436106100575760003560e01c8063715018a61461005c578063866b85fa146100665780638da5cb5b14610079578063c1f59afc14610099578063f2fde38b146100ba575b600080fd5b6100646100cd565b005b61006461007436600461036a565b6100e1565b6001546040516001600160a01b0390911681526020015b60405180910390f35b6100ac6100a73660046103a7565b610146565b604051908152602001610090565b6100646100c83660046103db565b6101bb565b6100d56101fe565b6100df600061022b565b565b6100e96101fe565b826001600160a01b0316336001600160a01b03167f940326476a755934b6ae9d2b36ffcf1f447c3a8223f6d9f8a796b54fbfcce582848460405161012e929190610415565b60405180910390a361014183838361027d565b505050565b6001600160a01b038216600090815260208181526040822090829061016d90850185610450565b67ffffffffffffffff168152602001908152602001600020600083602001602081019061019a9190610450565b67ffffffffffffffff16815260200190815260200160002054905092915050565b6101c36101fe565b6001600160a01b0381166101f257604051631e4fbdf760e01b8152600060048201526024015b60405180910390fd5b6101fb8161022b565b50565b6001546001600160a01b031633146100df5760405163118cdaa760e01b81523360048201526024016101e9565b600180546001600160a01b038381166001600160a01b0319831681179093556040519116919082907f8be0079c531659141344cd1fd0a4f28419497f9722a3daafe3b4186f6b6457e090600090a35050565b6001600160a01b0383166000908152602081815260408220839290916102a590860186610450565b67ffffffffffffffff16815260200190815260200160002060008460200160208101906102d29190610450565b67ffffffffffffffff16815260200190815260200160002081905550826001600160a01b03167f4e068a6b8ed35e6ee03244135874f91ccebb5cd1f3a258a6dc2ad0ebd29884768383604051610329929190610415565b60405180910390a2505050565b80356001600160a01b038116811461034d57600080fd5b919050565b60006040828403121561036457600080fd5b50919050565b60008060006080848603121561037f57600080fd5b61038884610336565b92506103978560208601610352565b9150606084013590509250925092565b600080606083850312156103ba57600080fd5b6103c383610336565b91506103d28460208501610352565b90509250929050565b6000602082840312156103ed57600080fd5b6103f682610336565b9392505050565b803567ffffffffffffffff8116811461034d57600080fd5b6060810167ffffffffffffffff8061042c866103fd565b1683528061043c602087016103fd565b166020840152508260408301529392505050565b60006020828403121561046257600080fd5b6103f6826103fd56fea26469706673582212209daab5af7bf31878a001268a1e530a73c9e116addde25fe1ed74dbd37dd6ab6664736f6c63430008170033a2646970667358221220202385c5d3667fd4673b493ed4c06f5c86e9736d67477efdd7fa7a1f5e0e807164736f6c63430008170033",
  "devdoc": {
    "events": {
      "AuthorityCreated(address,address)": {
        "details": "MUST be triggered on a successful call to `newAuthority`.",
        "params": {
          "authority": "The authority",
          "authorityOwner": "The initial authority owner"
        }
      }
    },
    "kind": "dev",
    "methods": {
      "calculateAuthorityAddress(address,bytes32)": {
        "details": "Beware that only the `newAuthority` function with the `salt` parameter      is able to deterministically deploy an authority.",
        "params": {
          "authorityOwner": "The initial authority owner",
          "salt": "The salt used to deterministically generate the authority address"
        },
        "returns": {
          "_0": "The deterministic authority address"
        }
      },
      "newAuthority(address)": {
        "details": "On success, MUST emit an `AuthorityCreated` event.",
        "params": {
          "authorityOwner": "The initial authority owner"
        },
        "returns": {
          "_0": "The authority"
        }
      },
      "newAuthority(address,bytes32)": {
        "details": "On success, MUST emit an `AuthorityCreated` event.",
        "params": {
          "authorityOwner": "The initial authority owner",
          "salt": "The salt used to deterministically generate the authority address"
        },
        "returns": {
          "_0": "The authority"
        }
      }
    },
    "title": "Authority Factory",
    "version": 1
  },
  "userdoc": {
    "events": {
      "AuthorityCreated(address,address)": {
        "notice": "A new authority was deployed."
      }
    },
    "kind": "user",
    "methods": {
      "calculateAuthorityAddress(address,bytes32)": {
        "notice": "Calculate the address of an authority to be deployed deterministically."
      },
      "newAuthority(address)": {
        "notice": "Deploy a new authority."
      },
      "newAuthority(address,bytes32)": {
        "notice": "Deploy a new authority deterministically."
      }
    },
    "notice": "Allows anyone to reliably deploy a new `Authority` contract.",
    "version": 1
  }
}