{
  "address": "0x9246F2Ca979Ef55FcacB5C4D3F46D36399da760e",
  "abi": [
    {
      "inputs": [
        {
          "internalType": "contract IInputBox",
          "name": "_inputBox",
          "type": "address"
        },
        {
          "internalType": "contract IDAOracle",
          "name": "_blobstreamX",
          "type": "address"
        }
      ],
      "stateMutability": "nonpayable",
      "type": "constructor"
    },
    {
      "inputs": [
        {
          "internalType": "address",
          "name": "_dapp",
          "type": "address"
        },
        {
          "components": [
            {
              "internalType": "bytes[]",
              "name": "data",
              "type": "bytes[]"
            },
            {
              "components": [
                {
                  "internalType": "uint256",
                  "name": "beginKey",
                  "type": "uint256"
                },
                {
                  "internalType": "uint256",
                  "name": "endKey",
                  "type": "uint256"
                },
                {
                  "components": [
                    {
                      "components": [
                        {
                          "internalType": "bytes1",
                          "name": "version",
                          "type": "bytes1"
                        },
                        {
                          "internalType": "bytes28",
                          "name": "id",
                          "type": "bytes28"
                        }
                      ],
                      "internalType": "struct Namespace",
                      "name": "min",
                      "type": "tuple"
                    },
                    {
                      "components": [
                        {
                          "internalType": "bytes1",
                          "name": "version",
                          "type": "bytes1"
                        },
                        {
                          "internalType": "bytes28",
                          "name": "id",
                          "type": "bytes28"
                        }
                      ],
                      "internalType": "struct Namespace",
                      "name": "max",
                      "type": "tuple"
                    },
                    {
                      "internalType": "bytes32",
                      "name": "digest",
                      "type": "bytes32"
                    }
                  ],
                  "internalType": "struct NamespaceNode[]",
                  "name": "sideNodes",
                  "type": "tuple[]"
                }
              ],
              "internalType": "struct NamespaceMerkleMultiproof[]",
              "name": "shareProofs",
              "type": "tuple[]"
            },
            {
              "components": [
                {
                  "internalType": "bytes1",
                  "name": "version",
                  "type": "bytes1"
                },
                {
                  "internalType": "bytes28",
                  "name": "id",
                  "type": "bytes28"
                }
              ],
              "internalType": "struct Namespace",
              "name": "namespace",
              "type": "tuple"
            },
            {
              "components": [
                {
                  "components": [
                    {
                      "internalType": "bytes1",
                      "name": "version",
                      "type": "bytes1"
                    },
                    {
                      "internalType": "bytes28",
                      "name": "id",
                      "type": "bytes28"
                    }
                  ],
                  "internalType": "struct Namespace",
                  "name": "min",
                  "type": "tuple"
                },
                {
                  "components": [
                    {
                      "internalType": "bytes1",
                      "name": "version",
                      "type": "bytes1"
                    },
                    {
                      "internalType": "bytes28",
                      "name": "id",
                      "type": "bytes28"
                    }
                  ],
                  "internalType": "struct Namespace",
                  "name": "max",
                  "type": "tuple"
                },
                {
                  "internalType": "bytes32",
                  "name": "digest",
                  "type": "bytes32"
                }
              ],
              "internalType": "struct NamespaceNode[]",
              "name": "rowRoots",
              "type": "tuple[]"
            },
            {
              "components": [
                {
                  "internalType": "bytes32[]",
                  "name": "sideNodes",
                  "type": "bytes32[]"
                },
                {
                  "internalType": "uint256",
                  "name": "key",
                  "type": "uint256"
                },
                {
                  "internalType": "uint256",
                  "name": "numLeaves",
                  "type": "uint256"
                }
              ],
              "internalType": "struct BinaryMerkleProof[]",
              "name": "rowProofs",
              "type": "tuple[]"
            },
            {
              "components": [
                {
                  "internalType": "uint256",
                  "name": "tupleRootNonce",
                  "type": "uint256"
                },
                {
                  "components": [
                    {
                      "internalType": "uint256",
                      "name": "height",
                      "type": "uint256"
                    },
                    {
                      "internalType": "bytes32",
                      "name": "dataRoot",
                      "type": "bytes32"
                    }
                  ],
                  "internalType": "struct DataRootTuple",
                  "name": "tuple",
                  "type": "tuple"
                },
                {
                  "components": [
                    {
                      "internalType": "bytes32[]",
                      "name": "sideNodes",
                      "type": "bytes32[]"
                    },
                    {
                      "internalType": "uint256",
                      "name": "key",
                      "type": "uint256"
                    },
                    {
                      "internalType": "uint256",
                      "name": "numLeaves",
                      "type": "uint256"
                    }
                  ],
                  "internalType": "struct BinaryMerkleProof",
                  "name": "proof",
                  "type": "tuple"
                }
              ],
              "internalType": "struct AttestationProof",
              "name": "attestationProof",
              "type": "tuple"
            }
          ],
          "internalType": "struct SharesProof",
          "name": "_proof",
          "type": "tuple"
        },
        {
          "internalType": "bytes32",
          "name": "_root",
          "type": "bytes32"
        },
        {
          "internalType": "bytes",
          "name": "_execLayerData",
          "type": "bytes"
        }
      ],
      "name": "relayShares",
      "outputs": [
        {
          "internalType": "bytes32",
          "name": "",
          "type": "bytes32"
        }
      ],
      "stateMutability": "nonpayable",
      "type": "function"
    }
  ],
  "transactionHash": "0x3e723f35fd3e0791615a9ddf2f47006583dc0d495570954309169a5e1490f130",
  "args": [
    "0x58Df21fE097d4bE5dCf61e01d9ea3f6B81c2E1dB",
    "0xc3e209eb245Fd59c8586777b499d6A665DF3ABD2"
  ],
  "numDeployments": 3,
  "solcInputHash": "0fe2bc05fdef4a76c16739be6ee37dd3",
  "bytecode": "0x6080604052346100305761001a610014610146565b9061021e565b610022610035565b613189610237823961318990f35b61003b565b60405190565b600080fd5b601f801991011690565b634e487b7160e01b600052604160045260246000fd5b9061006a90610040565b810190811060018060401b0382111761008257604052565b61004a565b9061009a610093610035565b9283610060565b565b600080fd5b60018060a01b031690565b6100b5906100a1565b90565b6100c1906100ac565b90565b6100cd816100b8565b036100d457565b600080fd5b905051906100e6826100c4565b565b6100f1906100ac565b90565b6100fd816100e8565b0361010457565b600080fd5b90505190610116826100f4565b565b9190604083820312610141578061013561013e92600086016100d9565b93602001610109565b90565b61009c565b6101646133c08038038061015981610087565b928339810190610118565b9091565b60001b90565b9061017f60018060a01b0391610168565b9181191691161790565b90565b6101a061019b6101a5926100a1565b610189565b6100a1565b90565b6101b19061018c565b90565b6101bd906101a8565b90565b90565b906101d86101d36101df926101b4565b6101c0565b825461016e565b9055565b6101ec9061018c565b90565b6101f8906101e3565b90565b90565b9061021361020e61021a926101ef565b6101fb565b825461016e565b9055565b9061022d6102349260006101c3565b60016101fe565b56fe60806040526004361015610013575b61099c565b61001e60003561002d565b63491ad5ad0361000e57610963565b60e01c90565b60405190565b600080fd5b600080fd5b600080fd5b60018060a01b031690565b61005c90610048565b90565b61006881610053565b0361006f57565b600080fd5b905035906100818261005f565b565b600080fd5b601f801991011690565b634e487b7160e01b600052604160045260246000fd5b906100b290610088565b810190811067ffffffffffffffff8211176100cc57604052565b610092565b906100e46100dd610033565b92836100a8565b565b600080fd5b600080fd5b67ffffffffffffffff81116101085760208091020190565b610092565b600080fd5b600080fd5b67ffffffffffffffff811161013557610131602091610088565b0190565b610092565b90826000939282370152565b9092919261015b61015682610117565b6100d1565b93818552602085019082840111610177576101759261013a565b565b610112565b9080601f8301121561019a5781602061019793359101610146565b90565b6100eb565b9291906101b36101ae826100f0565b6100d1565b938185526020808601920281019183831161020a5781905b8382106101d9575050505050565b813567ffffffffffffffff8111610205576020916101fa878493870161017c565b8152019101906101cb565b6100eb565b61010d565b9080601f8301121561022d5781602061022a9335910161019f565b90565b6100eb565b67ffffffffffffffff811161024a5760208091020190565b610092565b90565b61025b8161024f565b0361026257565b600080fd5b9050359061027482610252565b565b67ffffffffffffffff811161028e5760208091020190565b610092565b60ff60f81b1690565b6102a581610293565b036102ac57565b600080fd5b905035906102be8261029c565b565b63ffffffff191690565b6102d3816102c0565b036102da57565b600080fd5b905035906102ec826102ca565b565b919060408382031261032a576103239061030860406100d1565b9361031682600083016102b1565b60008601526020016102df565b6020830152565b610083565b90565b61033b8161032f565b0361034257565b600080fd5b9050359061035482610332565b565b919060a0838203126103a45761039d9061037060606100d1565b9361037e82600083016102ee565b600086015261039082604083016102ee565b6020860152608001610347565b6040830152565b610083565b909291926103be6103b982610276565b6100d1565b9381855260a06020860192028301928184116103fd57915b8383106103e35750505050565b602060a0916103f28486610356565b8152019201916103d6565b61010d565b9080601f830112156104205781602061041d933591016103a9565b90565b6100eb565b91909160608184031261048b5761043c60606100d1565b9261044a8160008401610267565b600085015261045c8160208401610267565b6020850152604082013567ffffffffffffffff81116104865761047f9201610402565b6040830152565b6100e6565b610083565b9291906104a461049f82610232565b6100d1565b93818552602080860192028101918383116104fb5781905b8382106104ca575050505050565b813567ffffffffffffffff81116104f6576020916104eb8784938701610425565b8152019101906104bc565b6100eb565b61010d565b9080601f8301121561051e5781602061051b93359101610490565b90565b6100eb565b67ffffffffffffffff811161053b5760208091020190565b610092565b67ffffffffffffffff81116105585760208091020190565b610092565b9092919261057261056d82610540565b6100d1565b93818552602080860192028301928184116105af57915b8383106105965750505050565b602080916105a48486610347565b815201920191610589565b61010d565b9080601f830112156105d2578160206105cf9335910161055d565b90565b6100eb565b91909160608184031261063e576105ee60606100d1565b9260008201359167ffffffffffffffff831161063957610613826106329483016105b4565b60008601526106258260208301610267565b6020860152604001610267565b6040830152565b6100e6565b610083565b92919061065761065282610523565b6100d1565b93818552602080860192028101918383116106ae5781905b83821061067d575050505050565b813567ffffffffffffffff81116106a95760209161069e87849387016105d7565b81520191019061066f565b6100eb565b61010d565b9080601f830112156106d1578160206106ce93359101610643565b90565b6100eb565b91906040838203126107125761070b906106f060406100d1565b936106fe8260008301610267565b6000860152602001610347565b6020830152565b610083565b91909160808184031261077d5761072e60606100d1565b9261073c8160008401610267565b600085015261074e81602084016106d6565b6020850152606082013567ffffffffffffffff81116107785761077192016105d7565b6040830152565b6100e6565b610083565b91909160e08184031261087e5761079960c06100d1565b92600082013567ffffffffffffffff811161087957816107ba91840161020f565b6000850152602082013567ffffffffffffffff811161087457816107df918401610500565b60208501526107f181604084016102ee565b6040850152608082013567ffffffffffffffff811161086f5781610816918401610402565b606085015260a082013567ffffffffffffffff811161086a578161083b9184016106b3565b608085015260c082013567ffffffffffffffff81116108655761085e9201610717565b60a0830152565b6100e6565b6100e6565b6100e6565b6100e6565b6100e6565b610083565b600080fd5b909182601f830112156108c25781359167ffffffffffffffff83116108bd5760200192600183028401116108b857565b61010d565b610883565b6100eb565b9060808282031261093b576108df8160008401610074565b92602083013567ffffffffffffffff81116109365782610900918501610782565b9261090e8360408301610347565b92606082013567ffffffffffffffff81116109315761092d9201610888565b9091565b610043565b610043565b61003e565b6109499061032f565b9052565b919061096190600060208501940190610940565b565b34610997576109936109826109793660046108c7565b93929092610d68565b61098a610033565b9182918261094d565b0390f35b610039565b600080fd5b600090565b60001c90565b60018060a01b031690565b6109c36109c8916109a6565b6109ac565b90565b6109d590546109b7565b90565b60209181520190565b60207f20426c6f6273747265616d5820636f6e74726163740000000000000000000000917f536861726573206e6f7420636f6d6d697474656420746f2043656c657374696160008201520152565b610a3c60356040926109d8565b610a45816109e1565b0190565b610a5f9060208101906000818303910152610a2f565b90565b15610a6957565b610a71610033565b62461bcd60e51b815280610a8760048201610a49565b0390fd5b610a95905161032f565b90565b610aa2905161024f565b90565b634e487b7160e01b600052603260045260246000fd5b5190565b90610ac982610abb565b811015610ada576020809102010190565b610aa5565b90565b90565b610af9610af4610afe92610adf565b610ae2565b61024f565b90565b90565b610b18610b13610b1d92610b01565b610ae2565b61024f565b90565b634e487b7160e01b600052601160045260246000fd5b610b45610b4b9193929361024f565b9261024f565b8203918211610b5657565b610b20565b60018060a01b031690565b610b72610b77916109a6565b610b5b565b90565b610b849054610b66565b90565b610b9b610b96610ba092610048565b610ae2565b610048565b90565b610bac90610b87565b90565b610bb890610ba3565b90565b610bc490610293565b9052565b610bd1906102c0565b9052565b90602080610bf993610bef60008201516000860190610bbb565b0151910190610bc8565b565b610c049061024f565b9052565b60209181520190565b9190610c2b81610c2481610c3095610c08565b809561013a565b610088565b0190565b92610c929795919694610c71610c7b92610c67610c8596610c5d60e08a019c60008b0190610bd5565b6040890190610940565b6060870190610bfb565b6080850190610bfb565b60a0830190610bfb565b60c0818503910152610c11565b90565b60e01b90565b90505190610ca882610332565b565b90602082820312610cc457610cc191600001610c9b565b90565b61003e565b610cd290610053565b9052565b5190565b60005b838110610cee575050906000910152565b806020918301518185015201610cdd565b610d1e610d27602093610d2c93610d1581610cd6565b93848093610c08565b95869101610cda565b610088565b0190565b91610d5492610d4760408201936000830190610cc9565b6020818403910152610cff565b90565b610d5f610033565b3d6000823e3d90fd5b6000610e7f91610d9b610d956020979596610d816109a1565b50610d8c60016109cb565b90889091610ee3565b50610a62565b610e68604086015195610e5a610db9898060a0850151015101610a8b565b91610dcc868b60a0840151015101610a98565b9a610e268b610e1f610df58a610dee84880151610de883610ae5565b90610abf565b5101610a98565b94610e19610e098480840151930151610abb565b610e136001610b04565b90610b36565b90610abf565b5101610a98565b98610e38610e3389610b7a565b610baf565b99631789cd63979b959d9390919293610e4f610033565b9e8f978f8901610c34565b8882018103825203886100a8565b610e8a610e73610033565b97889687958694610c95565b845260048401610d30565b03925af1908115610ecf57600091610ea1575b5090565b610ec2915060203d8111610ec8575b610eba81836100a8565b810190610caa565b38610e9d565b503d610eb0565b610d57565b600090565b600090565b151590565b91610f15610f1d9493610ef4610ed4565b50610efd610ed9565b506060840151608085015160a08601519185936110d7565b949015610ede565b610f4f57610f499293506000820151916020810151604082015190608060608401519301519394611238565b91909190565b505060009190565b610f6090610ba3565b90565b610f6c81610ede565b03610f7357565b600080fd5b90505190610f8582610f63565b565b90602082820312610fa157610f9e91600001610f78565b90565b61003e565b610faf9061024f565b9052565b610fbc9061032f565b9052565b90602080610fe493610fda60008201516000860190610fa6565b0151910190610fb3565b565b5190565b60209181520190565b60200190565b9061100681602093610fb3565b0190565b60200190565b9061102d61102761102084610fe6565b8093610fea565b92610ff3565b9060005b81811061103e5750505090565b9091926110576110516001928651610ff9565b9461100a565b9101919091611031565b9061109f906040806110826060840160008701518582036000870152611010565b9461109560208201516020860190610fa6565b0151910190610fa6565b90565b6110c76110d49492936110bd60808401956000850190610bfb565b6020830190610fc0565b6060818403910152611061565b90565b6110f960209195939492956110ea610ed4565b506110f3610ed9565b50610f57565b631f3302a99061112f61110e60008601610a98565b9261113a604086880151970151611123610033565b97889687958695610c95565b8552600485016110a2565b03915afa80156111a65761115791600091611178575b5015610ede565b61116d576111679291909161150b565b91909190565b505050600090600490565b611199915060203d811161119f575b61119181836100a8565b810190610f87565b38611150565b503d611187565b610d57565b5190565b60016111bb910161024f565b90565b6111cd6111d39193929361024f565b9261024f565b82018092116111de57565b610b20565b5190565b634e487b7160e01b600052602160045260246000fd5b600b111561120757565b6111e7565b90611216826111fd565b565b90611222826111ab565b811015611233576020809102010190565b610aa5565b9361125e9061126692979661124b610ed4565b50611254610ed9565b508591909161150b565b919015610ede565b611477575061127485610abb565b61128e611288611283856111ab565b61024f565b9161024f565b0361146a5761129d6000610ae5565b926112a86000610ae5565b935b846112c56112bf6112ba8a610abb565b61024f565b9161024f565b101561131b5761130f611315916113096112ec60206112e58c8b90610abf565b5101610a98565b61130360006112fc8d8c90610abf565b5101610a98565b90610b36565b906111be565b946111af565b936112aa565b909350949093919461133e611338611332866111e3565b9261024f565b9161024f565b0361145d5761134d6000610ae5565b946113586000610ae5565b955b8661137561136f61136a86610abb565b61024f565b9161024f565b101561144e576113b2611395602061138e868b90610abf565b5101610a98565b6113ac60006113a5878c90610abf565b5101610a98565b90610b36565b6113c886836113c28585906111be565b916116c8565b806113dc6113d6600061120c565b9161120c565b0361143e575061140a611410916113f4868c90611218565b5190611401888d90610abf565b518b91926118c1565b15610ede565b61142e576114289161142291906111be565b966111af565b9561135a565b5050505092505050600090600190565b9850505050505091505060009190565b50505092505050600190600090565b5092505050600090600790565b5050509050600090600590565b945050505060009190565b5190565b62ffffff191690565b90565b61149e6114a391611486565b61148f565b9052565b90565b6114b66114bb9161032f565b6114a7565b9052565b602093926114df601d836114d782956114e797611492565b018092611492565b0180926114aa565b0190565b906114f582611482565b811015611506576020809102010190565b610aa5565b919091611516610ed4565b5061151f610ed9565b5061152983611482565b61154361153d611538846111ab565b61024f565b9161024f565b03611631576115526000610ae5565b5b8061156e61156861156387611482565b61024f565b9161024f565b101561162557611607611600611592600061158a868690611218565b510151611a26565b6115eb6115ad60206115a5888890611218565b510151611a26565b916115dc6115c860406115c18a8a90611218565b5101610a8b565b6115d0610033565b948593602085016114bf565b602082018103825203826100a8565b85906115f88886906114eb565b519091611a9d565b5015610ede565b61161957611614906111af565b611553565b50505050600090600290565b50505050600190600090565b505050600090600690565b606090565b9061165361164e836100f0565b6100d1565b918252565b606090565b60005b82811061166c57505050565b602090611677611658565b8184015201611660565b906116a661168e83611641565b9260208061169c86936100f0565b920191039061165d565b565b906116b2826111e3565b8110156116c3576020809102010190565b610aa5565b9291926116d361163c565b506116dc610ed9565b50816116f06116ea8661024f565b9161024f565b116117be578161171061170a611705846111e3565b61024f565b9161024f565b11801561179c575b6117925761172f61172a858490610b36565b611681565b92825b8061174561173f8861024f565b9161024f565b1015611787576117829061177b61175d8583906116a8565b518761176a848990610b36565b9161177583836116a8565b526116a8565b51506111af565b611732565b509350505090600090565b9192505090600a90565b50836117b86117b26117ad846111e3565b61024f565b9161024f565b11611718565b9192505090600990565b906117da6117d583610276565b6100d1565b918252565b6117e960606100d1565b90565b6117f660406100d1565b90565b600090565b600090565b61180b6117ec565b90602080836118186117f9565b8152016118236117fe565b81525050565b611831611803565b90565b600090565b6118416117df565b90602080808461184f611829565b81520161185a611829565b815201611865611834565b81525050565b611873611839565b90565b60005b82811061188557505050565b60209061189061186b565b8184015201611879565b906118bf6118a7836117c8565b926020806118b58693610276565b9201910390611876565b565b929190936118cd610ed4565b506118df6118da846111e3565b61189a565b946118ea6000610ae5565b5b806119066119006118fb886111e3565b61024f565b9161024f565b1015611948576119439061193c611929866119228985906116a8565b5190611d38565b8983916119368383611218565b52611218565b51506111af565b6118eb565b50925093905061195a92919091611e51565b90565b600090565b61196c9051610293565b90565b61197990516102c0565b90565b90565b61198b61199091610293565b61197c565b9052565b90565b6119a36119a8916102c0565b611994565b9052565b6001816119bf6119c793601c969561197f565b018092611997565b0190565b60200190565b6119db9051611486565b90565b1b90565b6119fc6119f76119f183610cd6565b926119cb565b6119d1565b90601d8110611a0a575b5090565b611a1f9062ffffff1990601d036008026119de565b1638611a06565b611a7a90611a3261195d565b50611a75611a4e6020611a4760008501611962565b930161196f565b91611a66611a5a610033565b938492602084016119ac565b602082018103825203826100a8565b6119e2565b90565b600090565b60061115611a8c57565b6111e7565b90611a9b82611a82565b565b9091611aa7610ed4565b50611ab0611a7d565b50611abd60408401610a98565b611ad0611aca6001610b04565b9161024f565b1115600014611c2757611ae66000840151610fe6565b611af9611af36000610ae5565b9161024f565b03611c1c575b611b0b60208401610a98565b611b28611b22611b1d60408701610a98565b61024f565b9161024f565b1015611c1157611b379061219e565b91611b456000820151610fe6565b611b58611b526000610ae5565b9161024f565b14611bc6579182611b6f6020611b88949501610a98565b916000611b7e60408401610a98565b919201519261222d565b80611b9c611b966000611a91565b91611a91565b03611bbc5750611baf611bb5919261032f565b9161032f565b1490600090565b9291505060009190565b6040611bd29101610a98565b611be5611bdf6001610b04565b9161024f565b14600014611c0757611bfa611c00919261032f565b9161032f565b1490600090565b5050600090600090565b505050600090600290565b505050600090600190565b611c346000840151610fe6565b611c66611c60611c5b611c4960208801610a98565b611c5560408901610a98565b90612073565b61024f565b9161024f565b0315611aff57505050600090600190565b611c7f611839565b90565b60f81b90565b611c9c611c97611ca192610adf565b611c82565b610293565b90565b611cae6000611c88565b90565b905090565b611cdb611cd292602092611cc981610cd6565b94858093611cb1565b93849101610cda565b0190565b91611cfe600184611cf6611d059796601d9661197f565b018092611492565b0190611cb6565b90565b60001b90565b611d1791611cb6565b90565b611d2460606100d1565b90565b52565b90611d349061032f565b9052565b906000611d94602092611d49611c77565b50611d83611d55611ca4565b611d75611d6188611a26565b93611d6a610033565b948593898501611cdf565b8682018103825203826100a8565b611d8b610033565b91829182611d0e565b039060025afa15611ddb57611dd8611dad600051611d08565b611dcf83611dc6611dbc611d1a565b9560008701611d27565b60208501611d27565b60408301611d2a565b90565b610d57565b611de99061024f565b6000198114611df85760010190565b610b20565b90565b611e14611e0f611e1992611dfd565b610ae2565b61024f565b90565b611e2b611e319193929361024f565b9261024f565b91611e3d83820261024f565b928184041490151715611e4c57565b610b20565b611e59610ed4565b50611e646000610ae5565b93611e7a611e7560408501516111ab565b61189a565b91611e856000610ae5565b955b80611ea5611e9f611e9a60008901610a98565b61024f565b9161024f565b141580611ff4575b15611f0957611efd81611ecf611f0393611ec960008a01610a98565b9061244b565b611ef5611ee160408a01518c90611218565b51888c91611eef8383611218565b52611218565b5150906111be565b96611de0565b95611e87565b5093909450611f809150611f3a611f2a611f2560208601610a98565b612521565b611f346002611e00565b90611e1c565b80611f4e611f486001610b04565b9161024f565b10611fe4575b839160009190600090611f7a611f74611f6e600096610ae5565b93610ae5565b94610ae5565b946125ae565b505093905b84611fa4611f9e611f9960408701516111ab565b61024f565b9161024f565b1015611fd357611fc7611fcd91611fc060408601518890611218565b5190612831565b946111af565b93611f85565b909350611fe192915061299f565b90565b50611fef6001610b04565b611f54565b508661201461200e61200960408901516111ab565b61024f565b9161024f565b10611ead565b600090565b90565b61203661203161203b9261201f565b610ae2565b61024f565b90565b612049610100612022565b90565b61206b9061206561205f6120709461024f565b9161024f565b906119de565b61024f565b90565b61207b61201a565b508161209061208a6001610b04565b9161024f565b1115612174576120b06120a161203e565b6120aa84612a1a565b90610b36565b916120d860016120d36120cd866120c76001610b04565b90610b36565b91610b04565b61204c565b90826120ff6120f96120f4856120ee6001610b04565b90610b36565b61024f565b9161024f565b111560001461210e5750505090565b90809293506121266121206001610b04565b9161024f565b1460001461213e5750505061213b6001610b04565b90565b61215861215e926121526001958290610b36565b92610b36565b90612073565b9061216c6121719291610b04565b6111be565b90565b50506121806000610ae5565b90565b8061219460019261219b959461197f565b0190611cb6565b90565b60006121ef6020926121ae6109a1565b506121de6121ba611ca4565b6121d06121c5610033565b938492888401612183565b8682018103825203826100a8565b6121e6610033565b91829182611d0e565b039060025afa1561220857612205600051611d08565b90565b610d57565b9061221782610fe6565b811015612228576020809102010190565b610aa5565b9392936122386109a1565b50612241611a7d565b50816122566122506000610ae5565b9161024f565b14612440578161226f6122696001610b04565b9161024f565b1461240f5761227d85610fe6565b61229061228a6000610ae5565b9161024f565b146124045761229e82612521565b6122d0866000906122ca6122c46122b48b610fe6565b6122be6001610b04565b90610b36565b92610ae5565b90612bd2565b916122d9611a7d565b50806122ed6122e78461024f565b9161024f565b106123805761231d93929161230f612315926123076109a1565b508290610b36565b93610b36565b84919261222d565b90918161233361232d6000611a91565b91611a91565b0361237857505061236d61236884612362612352612372969792610fe6565b61235c6001610b04565b90610b36565b9061220d565b610a8b565b612d27565b90600090565b915092509190565b6123a093506000969496929192506123966109a1565b509186919261222d565b9093816123b66123b06000611a91565b91611a91565b036123fc5750506123f06123eb6123f69394926123e56123d582610fe6565b6123df6001610b04565b90610b36565b9061220d565b610a8b565b90612d27565b90600090565b915092509190565b505090915090600590565b5050909161241c90610fe6565b61242f6124296000610ae5565b9161024f565b0361243a5790600090565b90600490565b505090915090600390565b61247261246d6124829261245d61201a565b5061246781612d99565b94610b36565b612e20565b61247c6001610b04565b90610b36565b8161249561248f8361024f565b9161024f565b116124b157506124ae906124a96001610b04565b61204c565b90565b6124c591506124c06001610b04565b61204c565b90565b156124cf57565b600080fd5b60ff1690565b6124ee6124e96124f392610b01565b610ae2565b6124d4565b90565b1c90565b6125199061251361250d61251e946124d4565b9161024f565b906124f6565b61024f565b90565b61252961201a565b506125488161254161253b6001610b04565b9161024f565b10156124c8565b61257861255482612e20565b61257361256d6001926125676001610b04565b90610b36565b91610b04565b61204c565b9061258c612586839261024f565b9161024f565b14612595575b90565b6125a9906125a360016124da565b906124fa565b612592565b919092939594956125bd611c77565b506125c661201a565b506125cf61201a565b506125d8610ed4565b506125e4858390610b36565b6125f76125f16001610b04565b9161024f565b14612703578461261a61261461260f60008701610a98565b61024f565b9161024f565b111580156126dd575b6126bb576126579061263e612639878590610b36565b612521565b97849186859061264f878d906111be565b9293946125ae565b9161267a97939161267195935094919990949596926111be565b919293946125ae565b9491909290929461269461268e6001610ede565b91610ede565b146126ae576126a291612831565b90929160009193929190565b5090929160009193929190565b93916126d39596935060409150015192909192612eb9565b9193909293929190565b50816126fc6126f66126f160208701610a98565b61024f565b9161024f565b1015612623565b9391906127166000839895979801610a98565b6127286127228361024f565b9161024f565b11159081612775575b506127525761274894506040015192909192612eb9565b9193909293929190565b5050908261276461276b9493916111ab565b9192612e75565b9193909293929190565b905061279461278e61278960208501610a98565b61024f565b9161024f565b1038612731565b6127a3611803565b90565b6127ba6127b56127bf92610b01565b611c82565b610293565b90565b6127cc60016127a6565b90565b9461281d6020601d9661281588839c9b9861280d826128259a61280561282d9f806127fd600192869f61197f565b018092611492565b018092611492565b0180926114aa565b018092611492565b018092611492565b0180926114aa565b0190565b9061283a611c77565b506020600061290e612853828601518386015190612efc565b9361285c61279b565b506128728387015161286c612f8e565b90612fd4565b831461295c576128fd612883612f8e565b965b6128ef6128906127c2565b9161289d87820151611a26565b946128b660406128af8b850151611a26565b9301610a8b565b6128c289830151611a26565b906128db60406128d48d860151611a26565b9401610a8b565b936128e4610033565b9889978d89016127cf565b8682018103825203826100a8565b612905610033565b91829182611d0e565b039060025afa15612957576129549061294b61292b600051611d08565b9193612942612938611d1a565b9560008701611d27565b60208501611d27565b60408301611d2a565b90565b610d57565b6129718382015161296b612f8e565b90612fd4565b8314612985576128fd84870151965b612885565b6128fd612999858801518684015190613004565b96612980565b906129a8610ed4565b506129bc6000830151600083015190612fd4565b80612a01575b91826129ce575b505090565b6129f99192506129ee60406129e7816129f39401610a8b565b9401610a8b565b61032f565b9161032f565b1438806129c9565b50612a156020830151602083015190612fd4565b6129c2565b612a2261201a565b50612a2d6000610ae5565b5b612a426001612a3d8391610b04565b61204c565b612a54612a4e8461024f565b9161024f565b1015612a7357612a6e90612a686001610b04565b906111be565b612a2e565b612a859150612a8061203e565b610b36565b90565b606090565b60207f207468616e205f656e6400000000000000000000000000000000000000000000917f496e76616c69642072616e67653a205f626567696e206973206772656174657260008201520152565b612ae8602a6040926109d8565b612af181612a8d565b0190565b612b0b9060208101906000818303910152612adb565b90565b60207f65206f7574206f6620626f756e64730000000000000000000000000000000000917f496e76616c69642072616e67653a205f626567696e206f72205f656e6420617260008201520152565b612b69602f6040926109d8565b612b7281612b0e565b0190565b612b8c9060208101906000818303910152612b5c565b90565b90612ba1612b9c83610540565b6100d1565b918252565b369037565b90612bd0612bb883612b8f565b92602080612bc68693610540565b9201910390612ba6565b565b929092612bdd612a88565b5083612bf1612beb8561024f565b9161024f565b11612cd95783612c11612c0b612c0684610fe6565b61024f565b9161024f565b118015612cb7575b612c9557612c30612c2b848690610b36565b612bab565b91845b80612c46612c408761024f565b9161024f565b1015612c8c57612c8790612c82612c66612c6186849061220d565b610a8b565b612c7d8791612c76858c90610b36565b909261220d565b611d2a565b6111af565b612c33565b50935050905090565b612c9d610033565b62461bcd60e51b815280612cb360048201612b76565b0390fd5b5082612cd3612ccd612cc884610fe6565b61024f565b9161024f565b11612c19565b612ce1610033565b62461bcd60e51b815280612cf760048201612af5565b0390fd5b60209392612d1b600183612d138895612d239761197f565b0180926114aa565b0180926114aa565b0190565b612d7b602092612d6a600093612d3b6109a1565b50612d5c612d476127c2565b9193612d51610033565b948593898501612cfb565b8682018103825203826100a8565b612d72610033565b91829182611d0e565b039060025afa15612d9457612d91600051611d08565b90565b610d57565b612da161201a565b50612dac6001610b04565b91612db76000610ae5565b5b82612dcc612dc66000610ae5565b9161024f565b141580612e03575b15612dfc57612de5612df691611de0565b92612df060016124da565b906124fa565b91612db8565b9150915090565b50838316612e1a612e146000610ae5565b9161024f565b14612dd4565b612e2861201a565b50612e336000610ae5565b5b81612e48612e426000610ae5565b9161024f565b14612e7057612e59612e6a91611de0565b91612e6460016124da565b906124fa565b90612e34565b905090565b91612ea992949394612e85611c77565b50612e8e61201a565b50612e9761201a565b50612ea0610ed4565b50919091613029565b9391929093929193929193929190565b91612eed92949394612ec9611c77565b50612ed261201a565b50612edb61201a565b50612ee4610ed4565b50919091613029565b91929091929193929193929190565b90612f0561279b565b50612f118282906130f3565b600014612f1c575090565b905090565b612f2b60406100d1565b90565b90565b612f45612f40612f4a92612f2e565b611c82565b610293565b90565b90612f5790610293565b9052565b90565b60201b90565b612f78612f73612f7d92612f5b565b612f5e565b6102c0565b90565b90612f8a906102c0565b9052565b612f9661279b565b5060ff612fd1612fc860018060e01b03612fc3612fba612fb4612f21565b95612f31565b60008601612f4d565b612f64565b60208301612f80565b90565b612ffa612ff5612fef61300093612fe9610ed4565b50611a26565b93611a26565b611486565b91611486565b1490565b9061300d61279b565b50613019828290613123565b600014613024575090565b905090565b9091613033611c77565b5061303c61201a565b50613045610ed4565b5061304f826111ab565b61306261305c6000610ae5565b9161024f565b1480156130d0575b9081156130b3575b506130a057613085613097918390611218565b51916130916001610b04565b906111be565b91600091929190565b506130a9611c77565b9091600191929190565b90506130c86130c2849261024f565b9161024f565b101538613072565b50826130ec6130e66130e1856111ab565b61024f565b9161024f565b101561306a565b61311961311461310e61311f93613108610ed4565b50611a26565b93611a26565b611486565b91611486565b1090565b61314961314461313e61314f93613138610ed4565b50611a26565b93611a26565b611486565b91611486565b119056fea2646970667358221220674bdcc27ec55d5664feec2f564ff66bb8f2a9f5ae809a153df87c4cda476aaa64736f6c634300081a0033",
  "devdoc": {
    "kind": "dev",
    "methods": {
      "constructor": {
        "params": {
          "_blobstreamX": "BlobstreamX contract where Celestia commitments are being stored",
          "_inputBox": "InputBox contract to send inputs to Cartesi DApps"
        }
      },
      "relayShares(address,(bytes[],(uint256,uint256,((bytes1,bytes28),(bytes1,bytes28),bytes32)[])[],(bytes1,bytes28),((bytes1,bytes28),(bytes1,bytes28),bytes32)[],(bytes32[],uint256,uint256)[],(uint256,(uint256,bytes32),(bytes32[],uint256,uint256))),bytes32,bytes)": {
        "details": "Called by clients to securely relay Celestia data to Cartesi DApps",
        "params": {
          "_dapp": "The address of the DApp",
          "_execLayerData": "Additional data to be interpreted by the execution layer",
          "_proof": "SharesProof object showing that a range of shares is committed to Celestia",
          "_root": "The Celestia \"dataRoot\" with the commitment for the block that contains the shares"
        },
        "returns": {
          "_0": "The hash of the input as returned by the Cartesi DApp's input box"
        }
      }
    },
    "title": "CelestiaRelay",
    "version": 1
  },
  "userdoc": {
    "kind": "user",
    "methods": {
      "constructor": {
        "notice": "Constructor"
      },
      "relayShares(address,(bytes[],(uint256,uint256,((bytes1,bytes28),(bytes1,bytes28),bytes32)[])[],(bytes1,bytes28),((bytes1,bytes28),(bytes1,bytes28),bytes32)[],(bytes32[],uint256,uint256)[],(uint256,(uint256,bytes32),(bytes32[],uint256,uint256))),bytes32,bytes)": {
        "notice": "Relay the specified Celestia shares as an input to a DApp's input box"
      }
    },
    "notice": "Relays Celestia blocks as inputs to Cartesi DApps",
    "version": 1
  },
  "storageLayout": {
    "storage": [
      {
        "astId": 2744,
        "contract": "contracts/CelestiaRelay.sol:CelestiaRelay",
        "label": "inputBox",
        "offset": 0,
        "slot": "0",
        "type": "t_contract(IInputBox)49"
      },
      {
        "astId": 2747,
        "contract": "contracts/CelestiaRelay.sol:CelestiaRelay",
        "label": "blobstreamX",
        "offset": 0,
        "slot": "1",
        "type": "t_contract(IDAOracle)87"
      }
    ],
    "types": {
      "t_contract(IDAOracle)87": {
        "encoding": "inplace",
        "label": "contract IDAOracle",
        "numberOfBytes": "20"
      },
      "t_contract(IInputBox)49": {
        "encoding": "inplace",
        "label": "contract IInputBox",
        "numberOfBytes": "20"
      }
    }
  }
}