{
  "address": "0xAc4D5eeB63CCEA4195f34c8d6766594F99c9E00E",
  "abi": [
    {
      "inputs": [
        {
          "internalType": "contract IInputBox",
          "name": "_inputBox",
          "type": "address"
        },
        {
          "internalType": "contract IDAOracle",
          "name": "_blobstreamX",
          "type": "address"
        }
      ],
      "stateMutability": "nonpayable",
      "type": "constructor"
    },
    {
      "inputs": [
        {
          "internalType": "address",
          "name": "_dapp",
          "type": "address"
        },
        {
          "components": [
            {
              "internalType": "bytes[]",
              "name": "data",
              "type": "bytes[]"
            },
            {
              "components": [
                {
                  "internalType": "uint256",
                  "name": "beginKey",
                  "type": "uint256"
                },
                {
                  "internalType": "uint256",
                  "name": "endKey",
                  "type": "uint256"
                },
                {
                  "components": [
                    {
                      "components": [
                        {
                          "internalType": "bytes1",
                          "name": "version",
                          "type": "bytes1"
                        },
                        {
                          "internalType": "bytes28",
                          "name": "id",
                          "type": "bytes28"
                        }
                      ],
                      "internalType": "struct Namespace",
                      "name": "min",
                      "type": "tuple"
                    },
                    {
                      "components": [
                        {
                          "internalType": "bytes1",
                          "name": "version",
                          "type": "bytes1"
                        },
                        {
                          "internalType": "bytes28",
                          "name": "id",
                          "type": "bytes28"
                        }
                      ],
                      "internalType": "struct Namespace",
                      "name": "max",
                      "type": "tuple"
                    },
                    {
                      "internalType": "bytes32",
                      "name": "digest",
                      "type": "bytes32"
                    }
                  ],
                  "internalType": "struct NamespaceNode[]",
                  "name": "sideNodes",
                  "type": "tuple[]"
                }
              ],
              "internalType": "struct NamespaceMerkleMultiproof[]",
              "name": "shareProofs",
              "type": "tuple[]"
            },
            {
              "components": [
                {
                  "internalType": "bytes1",
                  "name": "version",
                  "type": "bytes1"
                },
                {
                  "internalType": "bytes28",
                  "name": "id",
                  "type": "bytes28"
                }
              ],
              "internalType": "struct Namespace",
              "name": "namespace",
              "type": "tuple"
            },
            {
              "components": [
                {
                  "components": [
                    {
                      "internalType": "bytes1",
                      "name": "version",
                      "type": "bytes1"
                    },
                    {
                      "internalType": "bytes28",
                      "name": "id",
                      "type": "bytes28"
                    }
                  ],
                  "internalType": "struct Namespace",
                  "name": "min",
                  "type": "tuple"
                },
                {
                  "components": [
                    {
                      "internalType": "bytes1",
                      "name": "version",
                      "type": "bytes1"
                    },
                    {
                      "internalType": "bytes28",
                      "name": "id",
                      "type": "bytes28"
                    }
                  ],
                  "internalType": "struct Namespace",
                  "name": "max",
                  "type": "tuple"
                },
                {
                  "internalType": "bytes32",
                  "name": "digest",
                  "type": "bytes32"
                }
              ],
              "internalType": "struct NamespaceNode[]",
              "name": "rowRoots",
              "type": "tuple[]"
            },
            {
              "components": [
                {
                  "internalType": "bytes32[]",
                  "name": "sideNodes",
                  "type": "bytes32[]"
                },
                {
                  "internalType": "uint256",
                  "name": "key",
                  "type": "uint256"
                },
                {
                  "internalType": "uint256",
                  "name": "numLeaves",
                  "type": "uint256"
                }
              ],
              "internalType": "struct BinaryMerkleProof[]",
              "name": "rowProofs",
              "type": "tuple[]"
            },
            {
              "components": [
                {
                  "internalType": "uint256",
                  "name": "tupleRootNonce",
                  "type": "uint256"
                },
                {
                  "components": [
                    {
                      "internalType": "uint256",
                      "name": "height",
                      "type": "uint256"
                    },
                    {
                      "internalType": "bytes32",
                      "name": "dataRoot",
                      "type": "bytes32"
                    }
                  ],
                  "internalType": "struct DataRootTuple",
                  "name": "tuple",
                  "type": "tuple"
                },
                {
                  "components": [
                    {
                      "internalType": "bytes32[]",
                      "name": "sideNodes",
                      "type": "bytes32[]"
                    },
                    {
                      "internalType": "uint256",
                      "name": "key",
                      "type": "uint256"
                    },
                    {
                      "internalType": "uint256",
                      "name": "numLeaves",
                      "type": "uint256"
                    }
                  ],
                  "internalType": "struct BinaryMerkleProof",
                  "name": "proof",
                  "type": "tuple"
                }
              ],
              "internalType": "struct AttestationProof",
              "name": "attestationProof",
              "type": "tuple"
            }
          ],
          "internalType": "struct SharesProof",
          "name": "_proof",
          "type": "tuple"
        },
        {
          "internalType": "bytes",
          "name": "_execLayerData",
          "type": "bytes"
        }
      ],
      "name": "relayShares",
      "outputs": [
        {
          "internalType": "bytes32",
          "name": "",
          "type": "bytes32"
        }
      ],
      "stateMutability": "nonpayable",
      "type": "function"
    }
  ],
  "transactionHash": "0x49968ee9bb56c6f6d611f9b396d8315bf850c66f98d9c4600593e2b222d5fb35",
  "args": [
    "0x58Df21fE097d4bE5dCf61e01d9ea3f6B81c2E1dB",
    "0xc3e209eb245Fd59c8586777b499d6A665DF3ABD2"
  ],
  "numDeployments": 4,
  "solcInputHash": "a3ef51a5e145496b009c5dd07d3276ee",
  "bytecode": "0x6080604052346100305761001a610014610146565b9061021e565b610022610035565b613177610237823961317790f35b61003b565b60405190565b600080fd5b601f801991011690565b634e487b7160e01b600052604160045260246000fd5b9061006a90610040565b810190811060018060401b0382111761008257604052565b61004a565b9061009a610093610035565b9283610060565b565b600080fd5b60018060a01b031690565b6100b5906100a1565b90565b6100c1906100ac565b90565b6100cd816100b8565b036100d457565b600080fd5b905051906100e6826100c4565b565b6100f1906100ac565b90565b6100fd816100e8565b0361010457565b600080fd5b90505190610116826100f4565b565b9190604083820312610141578061013561013e92600086016100d9565b93602001610109565b90565b61009c565b6101646133ae8038038061015981610087565b928339810190610118565b9091565b60001b90565b9061017f60018060a01b0391610168565b9181191691161790565b90565b6101a061019b6101a5926100a1565b610189565b6100a1565b90565b6101b19061018c565b90565b6101bd906101a8565b90565b90565b906101d86101d36101df926101b4565b6101c0565b825461016e565b9055565b6101ec9061018c565b90565b6101f8906101e3565b90565b90565b9061021361020e61021a926101ef565b6101fb565b825461016e565b9055565b9061022d6102349260006101c3565b60016101fe565b56fe60806040526004361015610013575b61098e565b61001e60003561002d565b63989823890361000e57610955565b60e01c90565b60405190565b600080fd5b600080fd5b600080fd5b60018060a01b031690565b61005c90610048565b90565b61006881610053565b0361006f57565b600080fd5b905035906100818261005f565b565b600080fd5b601f801991011690565b634e487b7160e01b600052604160045260246000fd5b906100b290610088565b810190811067ffffffffffffffff8211176100cc57604052565b610092565b906100e46100dd610033565b92836100a8565b565b600080fd5b600080fd5b67ffffffffffffffff81116101085760208091020190565b610092565b600080fd5b600080fd5b67ffffffffffffffff811161013557610131602091610088565b0190565b610092565b90826000939282370152565b9092919261015b61015682610117565b6100d1565b93818552602085019082840111610177576101759261013a565b565b610112565b9080601f8301121561019a5781602061019793359101610146565b90565b6100eb565b9291906101b36101ae826100f0565b6100d1565b938185526020808601920281019183831161020a5781905b8382106101d9575050505050565b813567ffffffffffffffff8111610205576020916101fa878493870161017c565b8152019101906101cb565b6100eb565b61010d565b9080601f8301121561022d5781602061022a9335910161019f565b90565b6100eb565b67ffffffffffffffff811161024a5760208091020190565b610092565b90565b61025b8161024f565b0361026257565b600080fd5b9050359061027482610252565b565b67ffffffffffffffff811161028e5760208091020190565b610092565b60ff60f81b1690565b6102a581610293565b036102ac57565b600080fd5b905035906102be8261029c565b565b63ffffffff191690565b6102d3816102c0565b036102da57565b600080fd5b905035906102ec826102ca565b565b919060408382031261032a576103239061030860406100d1565b9361031682600083016102b1565b60008601526020016102df565b6020830152565b610083565b90565b61033b8161032f565b0361034257565b600080fd5b9050359061035482610332565b565b919060a0838203126103a45761039d9061037060606100d1565b9361037e82600083016102ee565b600086015261039082604083016102ee565b6020860152608001610347565b6040830152565b610083565b909291926103be6103b982610276565b6100d1565b9381855260a06020860192028301928184116103fd57915b8383106103e35750505050565b602060a0916103f28486610356565b8152019201916103d6565b61010d565b9080601f830112156104205781602061041d933591016103a9565b90565b6100eb565b91909160608184031261048b5761043c60606100d1565b9261044a8160008401610267565b600085015261045c8160208401610267565b6020850152604082013567ffffffffffffffff81116104865761047f9201610402565b6040830152565b6100e6565b610083565b9291906104a461049f82610232565b6100d1565b93818552602080860192028101918383116104fb5781905b8382106104ca575050505050565b813567ffffffffffffffff81116104f6576020916104eb8784938701610425565b8152019101906104bc565b6100eb565b61010d565b9080601f8301121561051e5781602061051b93359101610490565b90565b6100eb565b67ffffffffffffffff811161053b5760208091020190565b610092565b67ffffffffffffffff81116105585760208091020190565b610092565b9092919261057261056d82610540565b6100d1565b93818552602080860192028301928184116105af57915b8383106105965750505050565b602080916105a48486610347565b815201920191610589565b61010d565b9080601f830112156105d2578160206105cf9335910161055d565b90565b6100eb565b91909160608184031261063e576105ee60606100d1565b9260008201359167ffffffffffffffff831161063957610613826106329483016105b4565b60008601526106258260208301610267565b6020860152604001610267565b6040830152565b6100e6565b610083565b92919061065761065282610523565b6100d1565b93818552602080860192028101918383116106ae5781905b83821061067d575050505050565b813567ffffffffffffffff81116106a95760209161069e87849387016105d7565b81520191019061066f565b6100eb565b61010d565b9080601f830112156106d1578160206106ce93359101610643565b90565b6100eb565b91906040838203126107125761070b906106f060406100d1565b936106fe8260008301610267565b6000860152602001610347565b6020830152565b610083565b91909160808184031261077d5761072e60606100d1565b9261073c8160008401610267565b600085015261074e81602084016106d6565b6020850152606082013567ffffffffffffffff81116107785761077192016105d7565b6040830152565b6100e6565b610083565b91909160e08184031261087e5761079960c06100d1565b92600082013567ffffffffffffffff811161087957816107ba91840161020f565b6000850152602082013567ffffffffffffffff811161087457816107df918401610500565b60208501526107f181604084016102ee565b6040850152608082013567ffffffffffffffff811161086f5781610816918401610402565b606085015260a082013567ffffffffffffffff811161086a578161083b9184016106b3565b608085015260c082013567ffffffffffffffff81116108655761085e9201610717565b60a0830152565b6100e6565b6100e6565b6100e6565b6100e6565b6100e6565b610083565b600080fd5b909182601f830112156108c25781359167ffffffffffffffff83116108bd5760200192600183028401116108b857565b61010d565b610883565b6100eb565b9160608383031261092d576108df8260008501610074565b92602081013567ffffffffffffffff81116109285783610900918301610782565b92604082013567ffffffffffffffff81116109235761091f9201610888565b9091565b610043565b610043565b61003e565b61093b9061032f565b9052565b919061095390600060208501940190610932565b565b346109895761098561097461096b3660046108c7565b92919091610d5a565b61097c610033565b9182918261093f565b0390f35b610039565b600080fd5b600090565b6109a2905161032f565b90565b60001c90565b60018060a01b031690565b6109c26109c7916109a5565b6109ab565b90565b6109d490546109b6565b90565b60209181520190565b60207f20426c6f6273747265616d5820636f6e74726163740000000000000000000000917f536861726573206e6f7420636f6d6d697474656420746f2043656c657374696160008201520152565b610a3b60356040926109d7565b610a44816109e0565b0190565b610a5e9060208101906000818303910152610a2e565b90565b15610a6857565b610a70610033565b62461bcd60e51b815280610a8660048201610a48565b0390fd5b610a94905161024f565b90565b634e487b7160e01b600052603260045260246000fd5b5190565b90610abb82610aad565b811015610acc576020809102010190565b610a97565b90565b90565b610aeb610ae6610af092610ad1565b610ad4565b61024f565b90565b90565b610b0a610b05610b0f92610af3565b610ad4565b61024f565b90565b634e487b7160e01b600052601160045260246000fd5b610b37610b3d9193929361024f565b9261024f565b8203918211610b4857565b610b12565b60018060a01b031690565b610b64610b69916109a5565b610b4d565b90565b610b769054610b58565b90565b610b8d610b88610b9292610048565b610ad4565b610048565b90565b610b9e90610b79565b90565b610baa90610b95565b90565b610bb690610293565b9052565b610bc3906102c0565b9052565b90602080610beb93610be160008201516000860190610bad565b0151910190610bba565b565b610bf69061024f565b9052565b60209181520190565b9190610c1d81610c1681610c2295610bfa565b809561013a565b610088565b0190565b92610c849795919694610c63610c6d92610c59610c7796610c4f60e08a019c60008b0190610bc7565b6040890190610932565b6060870190610bed565b6080850190610bed565b60a0830190610bed565b60c0818503910152610c03565b90565b60e01b90565b90505190610c9a82610332565b565b90602082820312610cb657610cb391600001610c8d565b90565b61003e565b610cc490610053565b9052565b5190565b60005b838110610ce0575050906000910152565b806020918301518185015201610ccf565b610d10610d19602093610d1e93610d0781610cc8565b93848093610bfa565b95869101610ccc565b610088565b0190565b91610d4692610d3960408201936000830190610cbb565b6020818403910152610cf1565b90565b610d51610033565b3d6000823e3d90fd5b91610e6d6000602094610d6b610993565b50610e56610d81878060a0890151015101610998565b610d9f610d99610d9160016109ca565b898491610ed1565b50610a61565b610e48604088015197610dba868b60a0840151015101610a8a565b9a610e148b610e0d610de38a610ddc84880151610dd683610ad7565b90610ab1565b5101610a8a565b94610e07610df78480840151930151610aad565b610e016001610af6565b90610b28565b90610ab1565b5101610a8a565b98610e26610e2189610b6c565b610ba1565b99631789cd63979b959d9390919293610e3d610033565b9e8f978f8901610c26565b8882018103825203886100a8565b610e78610e61610033565b97889687958694610c87565b845260048401610d22565b03925af1908115610ebd57600091610e8f575b5090565b610eb0915060203d8111610eb6575b610ea881836100a8565b810190610c9c565b38610e8b565b503d610e9e565b610d49565b600090565b600090565b151590565b91610f03610f0b9493610ee2610ec2565b50610eeb610ec7565b506060840151608085015160a08601519185936110c5565b949015610ecc565b610f3d57610f379293506000820151916020810151604082015190608060608401519301519394611226565b91909190565b505060009190565b610f4e90610b95565b90565b610f5a81610ecc565b03610f6157565b600080fd5b90505190610f7382610f51565b565b90602082820312610f8f57610f8c91600001610f66565b90565b61003e565b610f9d9061024f565b9052565b610faa9061032f565b9052565b90602080610fd293610fc860008201516000860190610f94565b0151910190610fa1565b565b5190565b60209181520190565b60200190565b90610ff481602093610fa1565b0190565b60200190565b9061101b61101561100e84610fd4565b8093610fd8565b92610fe1565b9060005b81811061102c5750505090565b90919261104561103f6001928651610fe7565b94610ff8565b910191909161101f565b9061108d906040806110706060840160008701518582036000870152610ffe565b9461108360208201516020860190610f94565b0151910190610f94565b90565b6110b56110c29492936110ab60808401956000850190610bed565b6020830190610fae565b606081840391015261104f565b90565b6110e760209195939492956110d8610ec2565b506110e1610ec7565b50610f45565b631f3302a99061111d6110fc60008601610a8a565b92611128604086880151970151611111610033565b97889687958695610c87565b855260048501611090565b03915afa80156111945761114591600091611166575b5015610ecc565b61115b57611155929190916114f9565b91909190565b505050600090600490565b611187915060203d811161118d575b61117f81836100a8565b810190610f75565b3861113e565b503d611175565b610d49565b5190565b60016111a9910161024f565b90565b6111bb6111c19193929361024f565b9261024f565b82018092116111cc57565b610b12565b5190565b634e487b7160e01b600052602160045260246000fd5b600b11156111f557565b6111d5565b90611204826111eb565b565b9061121082611199565b811015611221576020809102010190565b610a97565b9361124c90611254929796611239610ec2565b50611242610ec7565b50859190916114f9565b919015610ecc565b611465575061126285610aad565b61127c61127661127185611199565b61024f565b9161024f565b036114585761128b6000610ad7565b926112966000610ad7565b935b846112b36112ad6112a88a610aad565b61024f565b9161024f565b1015611309576112fd611303916112f76112da60206112d38c8b90610ab1565b5101610a8a565b6112f160006112ea8d8c90610ab1565b5101610a8a565b90610b28565b906111ac565b9461119d565b93611298565b909350949093919461132c611326611320866111d1565b9261024f565b9161024f565b0361144b5761133b6000610ad7565b946113466000610ad7565b955b8661136361135d61135886610aad565b61024f565b9161024f565b101561143c576113a0611383602061137c868b90610ab1565b5101610a8a565b61139a6000611393878c90610ab1565b5101610a8a565b90610b28565b6113b686836113b08585906111ac565b916116b6565b806113ca6113c460006111fa565b916111fa565b0361142c57506113f86113fe916113e2868c90611206565b51906113ef888d90610ab1565b518b91926118af565b15610ecc565b61141c576114169161141091906111ac565b9661119d565b95611348565b5050505092505050600090600190565b9850505050505091505060009190565b50505092505050600190600090565b5092505050600090600790565b5050509050600090600590565b945050505060009190565b5190565b62ffffff191690565b90565b61148c61149191611474565b61147d565b9052565b90565b6114a46114a99161032f565b611495565b9052565b602093926114cd601d836114c582956114d597611480565b018092611480565b018092611498565b0190565b906114e382611470565b8110156114f4576020809102010190565b610a97565b919091611504610ec2565b5061150d610ec7565b5061151783611470565b61153161152b61152684611199565b61024f565b9161024f565b0361161f576115406000610ad7565b5b8061155c61155661155187611470565b61024f565b9161024f565b1015611613576115f56115ee6115806000611578868690611206565b510151611a14565b6115d961159b6020611593888890611206565b510151611a14565b916115ca6115b660406115af8a8a90611206565b5101610998565b6115be610033565b948593602085016114ad565b602082018103825203826100a8565b85906115e68886906114d9565b519091611a8b565b5015610ecc565b611607576116029061119d565b611541565b50505050600090600290565b50505050600190600090565b505050600090600690565b606090565b9061164161163c836100f0565b6100d1565b918252565b606090565b60005b82811061165a57505050565b602090611665611646565b818401520161164e565b9061169461167c8361162f565b9260208061168a86936100f0565b920191039061164b565b565b906116a0826111d1565b8110156116b1576020809102010190565b610a97565b9291926116c161162a565b506116ca610ec7565b50816116de6116d88661024f565b9161024f565b116117ac57816116fe6116f86116f3846111d1565b61024f565b9161024f565b11801561178a575b6117805761171d611718858490610b28565b61166f565b92825b8061173361172d8861024f565b9161024f565b1015611775576117709061176961174b858390611696565b5187611758848990610b28565b916117638383611696565b52611696565b515061119d565b611720565b509350505090600090565b9192505090600a90565b50836117a66117a061179b846111d1565b61024f565b9161024f565b11611706565b9192505090600990565b906117c86117c383610276565b6100d1565b918252565b6117d760606100d1565b90565b6117e460406100d1565b90565b600090565b600090565b6117f96117da565b90602080836118066117e7565b8152016118116117ec565b81525050565b61181f6117f1565b90565b600090565b61182f6117cd565b90602080808461183d611817565b815201611848611817565b815201611853611822565b81525050565b611861611827565b90565b60005b82811061187357505050565b60209061187e611859565b8184015201611867565b906118ad611895836117b6565b926020806118a38693610276565b9201910390611864565b565b929190936118bb610ec2565b506118cd6118c8846111d1565b611888565b946118d86000610ad7565b5b806118f46118ee6118e9886111d1565b61024f565b9161024f565b1015611936576119319061192a61191786611910898590611696565b5190611d26565b8983916119248383611206565b52611206565b515061119d565b6118d9565b50925093905061194892919091611e3f565b90565b600090565b61195a9051610293565b90565b61196790516102c0565b90565b90565b61197961197e91610293565b61196a565b9052565b90565b611991611996916102c0565b611982565b9052565b6001816119ad6119b593601c969561196d565b018092611985565b0190565b60200190565b6119c99051611474565b90565b1b90565b6119ea6119e56119df83610cc8565b926119b9565b6119bf565b90601d81106119f8575b5090565b611a0d9062ffffff1990601d036008026119cc565b16386119f4565b611a6890611a2061194b565b50611a63611a3c6020611a3560008501611950565b930161195d565b91611a54611a48610033565b9384926020840161199a565b602082018103825203826100a8565b6119d0565b90565b600090565b60061115611a7a57565b6111d5565b90611a8982611a70565b565b9091611a95610ec2565b50611a9e611a6b565b50611aab60408401610a8a565b611abe611ab86001610af6565b9161024f565b1115600014611c1557611ad46000840151610fd4565b611ae7611ae16000610ad7565b9161024f565b03611c0a575b611af960208401610a8a565b611b16611b10611b0b60408701610a8a565b61024f565b9161024f565b1015611bff57611b259061218c565b91611b336000820151610fd4565b611b46611b406000610ad7565b9161024f565b14611bb4579182611b5d6020611b76949501610a8a565b916000611b6c60408401610a8a565b919201519261221b565b80611b8a611b846000611a7f565b91611a7f565b03611baa5750611b9d611ba3919261032f565b9161032f565b1490600090565b9291505060009190565b6040611bc09101610a8a565b611bd3611bcd6001610af6565b9161024f565b14600014611bf557611be8611bee919261032f565b9161032f565b1490600090565b5050600090600090565b505050600090600290565b505050600090600190565b611c226000840151610fd4565b611c54611c4e611c49611c3760208801610a8a565b611c4360408901610a8a565b90612061565b61024f565b9161024f565b0315611aed57505050600090600190565b611c6d611827565b90565b60f81b90565b611c8a611c85611c8f92610ad1565b611c70565b610293565b90565b611c9c6000611c76565b90565b905090565b611cc9611cc092602092611cb781610cc8565b94858093611c9f565b93849101610ccc565b0190565b91611cec600184611ce4611cf39796601d9661196d565b018092611480565b0190611ca4565b90565b60001b90565b611d0591611ca4565b90565b611d1260606100d1565b90565b52565b90611d229061032f565b9052565b906000611d82602092611d37611c65565b50611d71611d43611c92565b611d63611d4f88611a14565b93611d58610033565b948593898501611ccd565b8682018103825203826100a8565b611d79610033565b91829182611cfc565b039060025afa15611dc957611dc6611d9b600051611cf6565b611dbd83611db4611daa611d08565b9560008701611d15565b60208501611d15565b60408301611d18565b90565b610d49565b611dd79061024f565b6000198114611de65760010190565b610b12565b90565b611e02611dfd611e0792611deb565b610ad4565b61024f565b90565b611e19611e1f9193929361024f565b9261024f565b91611e2b83820261024f565b928184041490151715611e3a57565b610b12565b611e47610ec2565b50611e526000610ad7565b93611e68611e636040850151611199565b611888565b91611e736000610ad7565b955b80611e93611e8d611e8860008901610a8a565b61024f565b9161024f565b141580611fe2575b15611ef757611eeb81611ebd611ef193611eb760008a01610a8a565b90612439565b611ee3611ecf60408a01518c90611206565b51888c91611edd8383611206565b52611206565b5150906111ac565b96611dce565b95611e75565b5093909450611f6e9150611f28611f18611f1360208601610a8a565b61250f565b611f226002611dee565b90611e0a565b80611f3c611f366001610af6565b9161024f565b10611fd2575b839160009190600090611f68611f62611f5c600096610ad7565b93610ad7565b94610ad7565b9461259c565b505093905b84611f92611f8c611f876040870151611199565b61024f565b9161024f565b1015611fc157611fb5611fbb91611fae60408601518890611206565b519061281f565b9461119d565b93611f73565b909350611fcf92915061298d565b90565b50611fdd6001610af6565b611f42565b5086612002611ffc611ff76040890151611199565b61024f565b9161024f565b10611e9b565b600090565b90565b61202461201f6120299261200d565b610ad4565b61024f565b90565b612037610100612010565b90565b6120599061205361204d61205e9461024f565b9161024f565b906119cc565b61024f565b90565b612069612008565b508161207e6120786001610af6565b9161024f565b11156121625761209e61208f61202c565b61209884612a08565b90610b28565b916120c660016120c16120bb866120b56001610af6565b90610b28565b91610af6565b61203a565b90826120ed6120e76120e2856120dc6001610af6565b90610b28565b61024f565b9161024f565b11156000146120fc5750505090565b908092935061211461210e6001610af6565b9161024f565b1460001461212c575050506121296001610af6565b90565b61214661214c926121406001958290610b28565b92610b28565b90612061565b9061215a61215f9291610af6565b6111ac565b90565b505061216e6000610ad7565b90565b80612182600192612189959461196d565b0190611ca4565b90565b60006121dd60209261219c610993565b506121cc6121a8611c92565b6121be6121b3610033565b938492888401612171565b8682018103825203826100a8565b6121d4610033565b91829182611cfc565b039060025afa156121f6576121f3600051611cf6565b90565b610d49565b9061220582610fd4565b811015612216576020809102010190565b610a97565b939293612226610993565b5061222f611a6b565b508161224461223e6000610ad7565b9161024f565b1461242e578161225d6122576001610af6565b9161024f565b146123fd5761226b85610fd4565b61227e6122786000610ad7565b9161024f565b146123f25761228c8261250f565b6122be866000906122b86122b26122a28b610fd4565b6122ac6001610af6565b90610b28565b92610ad7565b90612bc0565b916122c7611a6b565b50806122db6122d58461024f565b9161024f565b1061236e5761230b9392916122fd612303926122f5610993565b508290610b28565b93610b28565b84919261221b565b90918161232161231b6000611a7f565b91611a7f565b0361236657505061235b61235684612350612340612360969792610fd4565b61234a6001610af6565b90610b28565b906121fb565b610998565b612d15565b90600090565b915092509190565b61238e9350600096949692919250612384610993565b509186919261221b565b9093816123a461239e6000611a7f565b91611a7f565b036123ea5750506123de6123d96123e49394926123d36123c382610fd4565b6123cd6001610af6565b90610b28565b906121fb565b610998565b90612d15565b90600090565b915092509190565b505090915090600590565b5050909161240a90610fd4565b61241d6124176000610ad7565b9161024f565b036124285790600090565b90600490565b505090915090600390565b61246061245b6124709261244b612008565b5061245581612d87565b94610b28565b612e0e565b61246a6001610af6565b90610b28565b8161248361247d8361024f565b9161024f565b1161249f575061249c906124976001610af6565b61203a565b90565b6124b391506124ae6001610af6565b61203a565b90565b156124bd57565b600080fd5b60ff1690565b6124dc6124d76124e192610af3565b610ad4565b6124c2565b90565b1c90565b612507906125016124fb61250c946124c2565b9161024f565b906124e4565b61024f565b90565b612517612008565b506125368161252f6125296001610af6565b9161024f565b10156124b6565b61256661254282612e0e565b61256161255b6001926125556001610af6565b90610b28565b91610af6565b61203a565b9061257a612574839261024f565b9161024f565b14612583575b90565b6125979061259160016124c8565b906124e8565b612580565b919092939594956125ab611c65565b506125b4612008565b506125bd612008565b506125c6610ec2565b506125d2858390610b28565b6125e56125df6001610af6565b9161024f565b146126f157846126086126026125fd60008701610a8a565b61024f565b9161024f565b111580156126cb575b6126a9576126459061262c612627878590610b28565b61250f565b97849186859061263d878d906111ac565b92939461259c565b9161266897939161265f95935094919990949596926111ac565b9192939461259c565b9491909290929461268261267c6001610ecc565b91610ecc565b1461269c576126909161281f565b90929160009193929190565b5090929160009193929190565b93916126c19596935060409150015192909192612ea7565b9193909293929190565b50816126ea6126e46126df60208701610a8a565b61024f565b9161024f565b1015612611565b9391906127046000839895979801610a8a565b6127166127108361024f565b9161024f565b11159081612763575b506127405761273694506040015192909192612ea7565b9193909293929190565b50509082612752612759949391611199565b9192612e63565b9193909293929190565b905061278261277c61277760208501610a8a565b61024f565b9161024f565b103861271f565b6127916117f1565b90565b6127a86127a36127ad92610af3565b611c70565b610293565b90565b6127ba6001612794565b90565b9461280b6020601d9661280388839c9b986127fb826128139a6127f361281b9f806127eb600192869f61196d565b018092611480565b018092611480565b018092611498565b018092611480565b018092611480565b018092611498565b0190565b90612828611c65565b50602060006128fc612841828601518386015190612eea565b9361284a612789565b506128608387015161285a612f7c565b90612fc2565b831461294a576128eb612871612f7c565b965b6128dd61287e6127b0565b9161288b87820151611a14565b946128a4604061289d8b850151611a14565b9301610998565b6128b089830151611a14565b906128c960406128c28d860151611a14565b9401610998565b936128d2610033565b9889978d89016127bd565b8682018103825203826100a8565b6128f3610033565b91829182611cfc565b039060025afa156129455761294290612939612919600051611cf6565b9193612930612926611d08565b9560008701611d15565b60208501611d15565b60408301611d18565b90565b610d49565b61295f83820151612959612f7c565b90612fc2565b8314612973576128eb84870151965b612873565b6128eb612987858801518684015190612ff2565b9661296e565b90612996610ec2565b506129aa6000830151600083015190612fc2565b806129ef575b91826129bc575b505090565b6129e79192506129dc60406129d5816129e19401610998565b9401610998565b61032f565b9161032f565b1438806129b7565b50612a036020830151602083015190612fc2565b6129b0565b612a10612008565b50612a1b6000610ad7565b5b612a306001612a2b8391610af6565b61203a565b612a42612a3c8461024f565b9161024f565b1015612a6157612a5c90612a566001610af6565b906111ac565b612a1c565b612a739150612a6e61202c565b610b28565b90565b606090565b60207f207468616e205f656e6400000000000000000000000000000000000000000000917f496e76616c69642072616e67653a205f626567696e206973206772656174657260008201520152565b612ad6602a6040926109d7565b612adf81612a7b565b0190565b612af99060208101906000818303910152612ac9565b90565b60207f65206f7574206f6620626f756e64730000000000000000000000000000000000917f496e76616c69642072616e67653a205f626567696e206f72205f656e6420617260008201520152565b612b57602f6040926109d7565b612b6081612afc565b0190565b612b7a9060208101906000818303910152612b4a565b90565b90612b8f612b8a83610540565b6100d1565b918252565b369037565b90612bbe612ba683612b7d565b92602080612bb48693610540565b9201910390612b94565b565b929092612bcb612a76565b5083612bdf612bd98561024f565b9161024f565b11612cc75783612bff612bf9612bf484610fd4565b61024f565b9161024f565b118015612ca5575b612c8357612c1e612c19848690610b28565b612b99565b91845b80612c34612c2e8761024f565b9161024f565b1015612c7a57612c7590612c70612c54612c4f8684906121fb565b610998565b612c6b8791612c64858c90610b28565b90926121fb565b611d18565b61119d565b612c21565b50935050905090565b612c8b610033565b62461bcd60e51b815280612ca160048201612b64565b0390fd5b5082612cc1612cbb612cb684610fd4565b61024f565b9161024f565b11612c07565b612ccf610033565b62461bcd60e51b815280612ce560048201612ae3565b0390fd5b60209392612d09600183612d018895612d119761196d565b018092611498565b018092611498565b0190565b612d69602092612d58600093612d29610993565b50612d4a612d356127b0565b9193612d3f610033565b948593898501612ce9565b8682018103825203826100a8565b612d60610033565b91829182611cfc565b039060025afa15612d8257612d7f600051611cf6565b90565b610d49565b612d8f612008565b50612d9a6001610af6565b91612da56000610ad7565b5b82612dba612db46000610ad7565b9161024f565b141580612df1575b15612dea57612dd3612de491611dce565b92612dde60016124c8565b906124e8565b91612da6565b9150915090565b50838316612e08612e026000610ad7565b9161024f565b14612dc2565b612e16612008565b50612e216000610ad7565b5b81612e36612e306000610ad7565b9161024f565b14612e5e57612e47612e5891611dce565b91612e5260016124c8565b906124e8565b90612e22565b905090565b91612e9792949394612e73611c65565b50612e7c612008565b50612e85612008565b50612e8e610ec2565b50919091613017565b9391929093929193929193929190565b91612edb92949394612eb7611c65565b50612ec0612008565b50612ec9612008565b50612ed2610ec2565b50919091613017565b91929091929193929193929190565b90612ef3612789565b50612eff8282906130e1565b600014612f0a575090565b905090565b612f1960406100d1565b90565b90565b612f33612f2e612f3892612f1c565b611c70565b610293565b90565b90612f4590610293565b9052565b90565b60201b90565b612f66612f61612f6b92612f49565b612f4c565b6102c0565b90565b90612f78906102c0565b9052565b612f84612789565b5060ff612fbf612fb660018060e01b03612fb1612fa8612fa2612f0f565b95612f1f565b60008601612f3b565b612f52565b60208301612f6e565b90565b612fe8612fe3612fdd612fee93612fd7610ec2565b50611a14565b93611a14565b611474565b91611474565b1490565b90612ffb612789565b50613007828290613111565b600014613012575090565b905090565b9091613021611c65565b5061302a612008565b50613033610ec2565b5061303d82611199565b61305061304a6000610ad7565b9161024f565b1480156130be575b9081156130a1575b5061308e57613073613085918390611206565b519161307f6001610af6565b906111ac565b91600091929190565b50613097611c65565b9091600191929190565b90506130b66130b0849261024f565b9161024f565b101538613060565b50826130da6130d46130cf85611199565b61024f565b9161024f565b1015613058565b6131076131026130fc61310d936130f6610ec2565b50611a14565b93611a14565b611474565b91611474565b1090565b61313761313261312c61313d93613126610ec2565b50611a14565b93611a14565b611474565b91611474565b119056fea2646970667358221220b1d786395ad4837d247f3fbaef6886d3aa6cfbdcfe1cd85269bdce327aa5dd0e64736f6c634300081a0033",
  "devdoc": {
    "kind": "dev",
    "methods": {
      "constructor": {
        "params": {
          "_blobstreamX": "BlobstreamX contract where Celestia commitments are being stored",
          "_inputBox": "InputBox contract to send inputs to Cartesi DApps"
        }
      },
      "relayShares(address,(bytes[],(uint256,uint256,((bytes1,bytes28),(bytes1,bytes28),bytes32)[])[],(bytes1,bytes28),((bytes1,bytes28),(bytes1,bytes28),bytes32)[],(bytes32[],uint256,uint256)[],(uint256,(uint256,bytes32),(bytes32[],uint256,uint256))),bytes)": {
        "details": "Called by clients to securely process Celestia data in Cartesi DApps",
        "params": {
          "_dapp": "The address of the DApp",
          "_execLayerData": "Additional data to be interpreted by the execution layer",
          "_proof": "SharesProof object showing that a range of shares is committed to Celestia"
        },
        "returns": {
          "_0": "The hash of the input as returned by the Cartesi DApp's input box"
        }
      }
    },
    "title": "CelestiaRelay",
    "version": 1
  },
  "userdoc": {
    "kind": "user",
    "methods": {
      "constructor": {
        "notice": "Constructor"
      },
      "relayShares(address,(bytes[],(uint256,uint256,((bytes1,bytes28),(bytes1,bytes28),bytes32)[])[],(bytes1,bytes28),((bytes1,bytes28),(bytes1,bytes28),bytes32)[],(bytes32[],uint256,uint256)[],(uint256,(uint256,bytes32),(bytes32[],uint256,uint256))),bytes)": {
        "notice": "Relay a pointer to the specified Celestia shares as an input to a DApp's input box"
      }
    },
    "notice": "Relays Celestia blocks as inputs to Cartesi DApps",
    "version": 1
  },
  "storageLayout": {
    "storage": [
      {
        "astId": 2744,
        "contract": "contracts/CelestiaRelay.sol:CelestiaRelay",
        "label": "inputBox",
        "offset": 0,
        "slot": "0",
        "type": "t_contract(IInputBox)49"
      },
      {
        "astId": 2747,
        "contract": "contracts/CelestiaRelay.sol:CelestiaRelay",
        "label": "blobstreamX",
        "offset": 0,
        "slot": "1",
        "type": "t_contract(IDAOracle)87"
      }
    ],
    "types": {
      "t_contract(IDAOracle)87": {
        "encoding": "inplace",
        "label": "contract IDAOracle",
        "numberOfBytes": "20"
      },
      "t_contract(IInputBox)49": {
        "encoding": "inplace",
        "label": "contract IInputBox",
        "numberOfBytes": "20"
      }
    }
  }
}