{
  "address": "0x5512fF0fB72366F879aD1E1940cDc8a921b52aae",
  "abi": [
    {
      "inputs": [
        {
          "internalType": "contract IInputBox",
          "name": "_inputBox",
          "type": "address"
        },
        {
          "internalType": "contract IDAOracle",
          "name": "_blobstreamX",
          "type": "address"
        }
      ],
      "stateMutability": "nonpayable",
      "type": "constructor"
    },
    {
      "inputs": [
        {
          "internalType": "address",
          "name": "_dapp",
          "type": "address"
        },
        {
          "components": [
            {
              "internalType": "bytes[]",
              "name": "data",
              "type": "bytes[]"
            },
            {
              "components": [
                {
                  "internalType": "uint256",
                  "name": "beginKey",
                  "type": "uint256"
                },
                {
                  "internalType": "uint256",
                  "name": "endKey",
                  "type": "uint256"
                },
                {
                  "components": [
                    {
                      "components": [
                        {
                          "internalType": "bytes1",
                          "name": "version",
                          "type": "bytes1"
                        },
                        {
                          "internalType": "bytes28",
                          "name": "id",
                          "type": "bytes28"
                        }
                      ],
                      "internalType": "struct Namespace",
                      "name": "min",
                      "type": "tuple"
                    },
                    {
                      "components": [
                        {
                          "internalType": "bytes1",
                          "name": "version",
                          "type": "bytes1"
                        },
                        {
                          "internalType": "bytes28",
                          "name": "id",
                          "type": "bytes28"
                        }
                      ],
                      "internalType": "struct Namespace",
                      "name": "max",
                      "type": "tuple"
                    },
                    {
                      "internalType": "bytes32",
                      "name": "digest",
                      "type": "bytes32"
                    }
                  ],
                  "internalType": "struct NamespaceNode[]",
                  "name": "sideNodes",
                  "type": "tuple[]"
                }
              ],
              "internalType": "struct NamespaceMerkleMultiproof[]",
              "name": "shareProofs",
              "type": "tuple[]"
            },
            {
              "components": [
                {
                  "internalType": "bytes1",
                  "name": "version",
                  "type": "bytes1"
                },
                {
                  "internalType": "bytes28",
                  "name": "id",
                  "type": "bytes28"
                }
              ],
              "internalType": "struct Namespace",
              "name": "namespace",
              "type": "tuple"
            },
            {
              "components": [
                {
                  "components": [
                    {
                      "internalType": "bytes1",
                      "name": "version",
                      "type": "bytes1"
                    },
                    {
                      "internalType": "bytes28",
                      "name": "id",
                      "type": "bytes28"
                    }
                  ],
                  "internalType": "struct Namespace",
                  "name": "min",
                  "type": "tuple"
                },
                {
                  "components": [
                    {
                      "internalType": "bytes1",
                      "name": "version",
                      "type": "bytes1"
                    },
                    {
                      "internalType": "bytes28",
                      "name": "id",
                      "type": "bytes28"
                    }
                  ],
                  "internalType": "struct Namespace",
                  "name": "max",
                  "type": "tuple"
                },
                {
                  "internalType": "bytes32",
                  "name": "digest",
                  "type": "bytes32"
                }
              ],
              "internalType": "struct NamespaceNode[]",
              "name": "rowRoots",
              "type": "tuple[]"
            },
            {
              "components": [
                {
                  "internalType": "bytes32[]",
                  "name": "sideNodes",
                  "type": "bytes32[]"
                },
                {
                  "internalType": "uint256",
                  "name": "key",
                  "type": "uint256"
                },
                {
                  "internalType": "uint256",
                  "name": "numLeaves",
                  "type": "uint256"
                }
              ],
              "internalType": "struct BinaryMerkleProof[]",
              "name": "rowProofs",
              "type": "tuple[]"
            },
            {
              "components": [
                {
                  "internalType": "uint256",
                  "name": "tupleRootNonce",
                  "type": "uint256"
                },
                {
                  "components": [
                    {
                      "internalType": "uint256",
                      "name": "height",
                      "type": "uint256"
                    },
                    {
                      "internalType": "bytes32",
                      "name": "dataRoot",
                      "type": "bytes32"
                    }
                  ],
                  "internalType": "struct DataRootTuple",
                  "name": "tuple",
                  "type": "tuple"
                },
                {
                  "components": [
                    {
                      "internalType": "bytes32[]",
                      "name": "sideNodes",
                      "type": "bytes32[]"
                    },
                    {
                      "internalType": "uint256",
                      "name": "key",
                      "type": "uint256"
                    },
                    {
                      "internalType": "uint256",
                      "name": "numLeaves",
                      "type": "uint256"
                    }
                  ],
                  "internalType": "struct BinaryMerkleProof",
                  "name": "proof",
                  "type": "tuple"
                }
              ],
              "internalType": "struct AttestationProof",
              "name": "attestationProof",
              "type": "tuple"
            }
          ],
          "internalType": "struct SharesProof",
          "name": "_proof",
          "type": "tuple"
        },
        {
          "internalType": "bytes32",
          "name": "_root",
          "type": "bytes32"
        }
      ],
      "name": "relayShares",
      "outputs": [
        {
          "internalType": "bytes32",
          "name": "",
          "type": "bytes32"
        }
      ],
      "stateMutability": "nonpayable",
      "type": "function"
    }
  ],
  "transactionHash": "0x8a9fad8d80ec55eae3bc7ed3aa725d7defd73c0bb36902618d4295a3c8e09f60",
  "args": [
    "0x58Df21fE097d4bE5dCf61e01d9ea3f6B81c2E1dB",
    "0xc3e209eb245Fd59c8586777b499d6A665DF3ABD2"
  ],
  "numDeployments": 2,
  "solcInputHash": "4753798fe045c65cdec213fe53c6a525",
  "bytecode": "0x6080604052346100305761001a610014610146565b9061021e565b610022610035565b6130ad61023782396130ad90f35b61003b565b60405190565b600080fd5b601f801991011690565b634e487b7160e01b600052604160045260246000fd5b9061006a90610040565b810190811060018060401b0382111761008257604052565b61004a565b9061009a610093610035565b9283610060565b565b600080fd5b60018060a01b031690565b6100b5906100a1565b90565b6100c1906100ac565b90565b6100cd816100b8565b036100d457565b600080fd5b905051906100e6826100c4565b565b6100f1906100ac565b90565b6100fd816100e8565b0361010457565b600080fd5b90505190610116826100f4565b565b9190604083820312610141578061013561013e92600086016100d9565b93602001610109565b90565b61009c565b6101646132e48038038061015981610087565b928339810190610118565b9091565b60001b90565b9061017f60018060a01b0391610168565b9181191691161790565b90565b6101a061019b6101a5926100a1565b610189565b6100a1565b90565b6101b19061018c565b90565b6101bd906101a8565b90565b90565b906101d86101d36101df926101b4565b6101c0565b825461016e565b9055565b6101ec9061018c565b90565b6101f8906101e3565b90565b90565b9061021361020e61021a926101ef565b6101fb565b825461016e565b9055565b9061022d6102349260006101c3565b60016101fe565b56fe60806040526004361015610013575b610930565b61001e60003561002d565b631ffcf1a90361000e576108fa565b60e01c90565b60405190565b600080fd5b600080fd5b600080fd5b60018060a01b031690565b61005c90610048565b90565b61006881610053565b0361006f57565b600080fd5b905035906100818261005f565b565b600080fd5b601f801991011690565b634e487b7160e01b600052604160045260246000fd5b906100b290610088565b810190811067ffffffffffffffff8211176100cc57604052565b610092565b906100e46100dd610033565b92836100a8565b565b600080fd5b600080fd5b67ffffffffffffffff81116101085760208091020190565b610092565b600080fd5b600080fd5b67ffffffffffffffff811161013557610131602091610088565b0190565b610092565b90826000939282370152565b9092919261015b61015682610117565b6100d1565b93818552602085019082840111610177576101759261013a565b565b610112565b9080601f8301121561019a5781602061019793359101610146565b90565b6100eb565b9291906101b36101ae826100f0565b6100d1565b938185526020808601920281019183831161020a5781905b8382106101d9575050505050565b813567ffffffffffffffff8111610205576020916101fa878493870161017c565b8152019101906101cb565b6100eb565b61010d565b9080601f8301121561022d5781602061022a9335910161019f565b90565b6100eb565b67ffffffffffffffff811161024a5760208091020190565b610092565b90565b61025b8161024f565b0361026257565b600080fd5b9050359061027482610252565b565b67ffffffffffffffff811161028e5760208091020190565b610092565b60ff60f81b1690565b6102a581610293565b036102ac57565b600080fd5b905035906102be8261029c565b565b63ffffffff191690565b6102d3816102c0565b036102da57565b600080fd5b905035906102ec826102ca565b565b919060408382031261032a576103239061030860406100d1565b9361031682600083016102b1565b60008601526020016102df565b6020830152565b610083565b90565b61033b8161032f565b0361034257565b600080fd5b9050359061035482610332565b565b919060a0838203126103a45761039d9061037060606100d1565b9361037e82600083016102ee565b600086015261039082604083016102ee565b6020860152608001610347565b6040830152565b610083565b909291926103be6103b982610276565b6100d1565b9381855260a06020860192028301928184116103fd57915b8383106103e35750505050565b602060a0916103f28486610356565b8152019201916103d6565b61010d565b9080601f830112156104205781602061041d933591016103a9565b90565b6100eb565b91909160608184031261048b5761043c60606100d1565b9261044a8160008401610267565b600085015261045c8160208401610267565b6020850152604082013567ffffffffffffffff81116104865761047f9201610402565b6040830152565b6100e6565b610083565b9291906104a461049f82610232565b6100d1565b93818552602080860192028101918383116104fb5781905b8382106104ca575050505050565b813567ffffffffffffffff81116104f6576020916104eb8784938701610425565b8152019101906104bc565b6100eb565b61010d565b9080601f8301121561051e5781602061051b93359101610490565b90565b6100eb565b67ffffffffffffffff811161053b5760208091020190565b610092565b67ffffffffffffffff81116105585760208091020190565b610092565b9092919261057261056d82610540565b6100d1565b93818552602080860192028301928184116105af57915b8383106105965750505050565b602080916105a48486610347565b815201920191610589565b61010d565b9080601f830112156105d2578160206105cf9335910161055d565b90565b6100eb565b91909160608184031261063e576105ee60606100d1565b9260008201359167ffffffffffffffff831161063957610613826106329483016105b4565b60008601526106258260208301610267565b6020860152604001610267565b6040830152565b6100e6565b610083565b92919061065761065282610523565b6100d1565b93818552602080860192028101918383116106ae5781905b83821061067d575050505050565b813567ffffffffffffffff81116106a95760209161069e87849387016105d7565b81520191019061066f565b6100eb565b61010d565b9080601f830112156106d1578160206106ce93359101610643565b90565b6100eb565b91906040838203126107125761070b906106f060406100d1565b936106fe8260008301610267565b6000860152602001610347565b6020830152565b610083565b91909160808184031261077d5761072e60606100d1565b9261073c8160008401610267565b600085015261074e81602084016106d6565b6020850152606082013567ffffffffffffffff81116107785761077192016105d7565b6040830152565b6100e6565b610083565b91909160e08184031261087e5761079960c06100d1565b92600082013567ffffffffffffffff811161087957816107ba91840161020f565b6000850152602082013567ffffffffffffffff811161087457816107df918401610500565b60208501526107f181604084016102ee565b6040850152608082013567ffffffffffffffff811161086f5781610816918401610402565b606085015260a082013567ffffffffffffffff811161086a578161083b9184016106b3565b608085015260c082013567ffffffffffffffff81116108655761085e9201610717565b60a0830152565b6100e6565b6100e6565b6100e6565b6100e6565b6100e6565b610083565b90916060828403126108d25761089c8360008401610074565b9260208301359067ffffffffffffffff82116108cd576108c1816108ca938601610782565b93604001610347565b90565b610043565b61003e565b6108e09061032f565b9052565b91906108f8906000602085019401906108d7565b565b3461092b57610927610916610910366004610883565b91610c5d565b61091e610033565b918291826108e4565b0390f35b610039565b600080fd5b600090565b60001c90565b60018060a01b031690565b61095761095c9161093a565b610940565b90565b610969905461094b565b90565b60209181520190565b60207f20426c6f6273747265616d5820636f6e74726163740000000000000000000000917f536861726573206e6f7420636f6d6d697474656420746f2043656c657374696160008201520152565b6109d0603560409261096c565b6109d981610975565b0190565b6109f390602081019060008183039101526109c3565b90565b156109fd57565b610a05610033565b62461bcd60e51b815280610a1b600482016109dd565b0390fd5b610a29905161032f565b90565b610a36905161024f565b90565b634e487b7160e01b600052603260045260246000fd5b5190565b90610a5d82610a4f565b811015610a6e576020809102010190565b610a39565b90565b90565b610a8d610a88610a9292610a73565b610a76565b61024f565b90565b60018060a01b031690565b610aac610ab19161093a565b610a95565b90565b610abe9054610aa0565b90565b610ad5610ad0610ada92610048565b610a76565b610048565b90565b610ae690610ac1565b90565b610af290610add565b90565b610afe90610293565b9052565b610b0b906102c0565b9052565b90602080610b3393610b2960008201516000860190610af5565b0151910190610b02565b565b610b3e9061024f565b9052565b610b78610b7f94610b6e608094989795610b6460a086019a6000870190610b0f565b60408501906108d7565b6060830190610b35565b0190610b35565b565b60e01b90565b90505190610b9482610332565b565b90602082820312610bb057610bad91600001610b87565b90565b61003e565b610bbe90610053565b9052565b5190565b60209181520190565b60005b838110610be3575050906000910152565b806020918301518185015201610bd2565b610c13610c1c602093610c2193610c0a81610bc2565b93848093610bc6565b95869101610bcf565b610088565b0190565b91610c4992610c3c60408201936000830190610bb5565b6020818403910152610bf4565b90565b610c54610033565b3d6000823e3d90fd5b9091610c67610935565b50610c72600161095f565b9083610c7d92610dad565b50610c87906109f6565b8160400151918060a0015160200151602001610ca290610a1f565b918160a0015160200151600001610cb890610a2c565b91602001516000610cc890610a79565b610cd191610a53565b51600001610cde90610a2c565b91610ce96000610ab4565b610cf290610ae9565b93631789cd639295909193610d05610033565b9485936020850193610d1694610b42565b602082018103825203610d2990836100a8565b610d31610033565b938492610d3e8493610b81565b83526004830191610d4e92610c25565b03815a602094600091f1908115610d9957600091610d6b575b5090565b610d8c915060203d8111610d92575b610d8481836100a8565b810190610b96565b38610d67565b503d610d7a565b610c4c565b600090565b600090565b151590565b91610ddf610de79493610dbe610d9e565b50610dc7610da3565b506060840151608085015160a0860151918593610fa1565b949015610da8565b610e1957610e13929350600082015191602081015160408201519060806060840151930151939461113d565b91909190565b505060009190565b610e2a90610add565b90565b610e3681610da8565b03610e3d57565b600080fd5b90505190610e4f82610e2d565b565b90602082820312610e6b57610e6891600001610e42565b90565b61003e565b610e799061024f565b9052565b610e869061032f565b9052565b90602080610eae93610ea460008201516000860190610e70565b0151910190610e7d565b565b5190565b60209181520190565b60200190565b90610ed081602093610e7d565b0190565b60200190565b90610ef7610ef1610eea84610eb0565b8093610eb4565b92610ebd565b9060005b818110610f085750505090565b909192610f21610f1b6001928651610ec3565b94610ed4565b9101919091610efb565b90610f6990604080610f4c6060840160008701518582036000870152610eda565b94610f5f60208201516020860190610e70565b0151910190610e70565b90565b610f91610f9e949293610f8760808401956000850190610b35565b6020830190610e8a565b6060818403910152610f2b565b90565b610fc36020919593949295610fb4610d9e565b50610fbd610da3565b50610e21565b631f3302a990610ff9610fd860008601610a2c565b92611004604086880151970151610fed610033565b97889687958695610b81565b855260048501610f6c565b03915afa80156110705761102191600091611042575b5015610da8565b6110375761103192919091611410565b91909190565b505050600090600490565b611063915060203d8111611069575b61105b81836100a8565b810190610e51565b3861101a565b503d611051565b610c4c565b5190565b6001611085910161024f565b90565b634e487b7160e01b600052601160045260246000fd5b6110ad6110b39193929361024f565b9261024f565b82039182116110be57565b611088565b6110d26110d89193929361024f565b9261024f565b82018092116110e357565b611088565b5190565b634e487b7160e01b600052602160045260246000fd5b600b111561110c57565b6110ec565b9061111b82611102565b565b9061112782611075565b811015611138576020809102010190565b610a39565b936111639061116b929796611150610d9e565b50611159610da3565b5085919091611410565b919015610da8565b61137c575061117985610a4f565b61119361118d61118885611075565b61024f565b9161024f565b0361136f576111a26000610a79565b926111ad6000610a79565b935b846111ca6111c46111bf8a610a4f565b61024f565b9161024f565b10156112205761121461121a9161120e6111f160206111ea8c8b90610a53565b5101610a2c565b61120860006112018d8c90610a53565b5101610a2c565b9061109e565b906110c3565b94611079565b936111af565b909350949093919461124361123d611237866110e8565b9261024f565b9161024f565b03611362576112526000610a79565b9461125d6000610a79565b955b8661127a61127461126f86610a4f565b61024f565b9161024f565b1015611353576112b761129a6020611293868b90610a53565b5101610a2c565b6112b160006112aa878c90610a53565b5101610a2c565b9061109e565b6112cd86836112c78585906110c3565b916115cd565b806112e16112db6000611111565b91611111565b03611343575061130f611315916112f9868c9061111d565b5190611306888d90610a53565b518b91926117c6565b15610da8565b6113335761132d9161132791906110c3565b96611079565b9561125f565b5050505092505050600090600190565b9850505050505091505060009190565b50505092505050600190600090565b5092505050600090600790565b5050509050600090600590565b945050505060009190565b5190565b62ffffff191690565b90565b6113a36113a89161138b565b611394565b9052565b90565b6113bb6113c09161032f565b6113ac565b9052565b602093926113e4601d836113dc82956113ec97611397565b018092611397565b0180926113af565b0190565b906113fa82611387565b81101561140b576020809102010190565b610a39565b91909161141b610d9e565b50611424610da3565b5061142e83611387565b61144861144261143d84611075565b61024f565b9161024f565b03611536576114576000610a79565b5b8061147361146d61146887611387565b61024f565b9161024f565b101561152a5761150c611505611497600061148f86869061111d565b51015161192b565b6114f06114b260206114aa88889061111d565b51015161192b565b916114e16114cd60406114c68a8a9061111d565b5101610a1f565b6114d5610033565b948593602085016113c4565b602082018103825203826100a8565b85906114fd8886906113f0565b5190916119c1565b5015610da8565b61151e5761151990611079565b611458565b50505050600090600290565b50505050600190600090565b505050600090600690565b606090565b90611558611553836100f0565b6100d1565b918252565b606090565b60005b82811061157157505050565b60209061157c61155d565b8184015201611565565b906115ab61159383611546565b926020806115a186936100f0565b9201910390611562565b565b906115b7826110e8565b8110156115c8576020809102010190565b610a39565b9291926115d8611541565b506115e1610da3565b50816115f56115ef8661024f565b9161024f565b116116c3578161161561160f61160a846110e8565b61024f565b9161024f565b1180156116a1575b6116975761163461162f85849061109e565b611586565b92825b8061164a6116448861024f565b9161024f565b101561168c57611687906116806116628583906115ad565b518761166f84899061109e565b9161167a83836115ad565b526115ad565b5150611079565b611637565b509350505090600090565b9192505090600a90565b50836116bd6116b76116b2846110e8565b61024f565b9161024f565b1161161d565b9192505090600990565b906116df6116da83610276565b6100d1565b918252565b6116ee60606100d1565b90565b6116fb60406100d1565b90565b600090565b600090565b6117106116f1565b906020808361171d6116fe565b815201611728611703565b81525050565b611736611708565b90565b600090565b6117466116e4565b90602080808461175461172e565b81520161175f61172e565b81520161176a611739565b81525050565b61177861173e565b90565b60005b82811061178a57505050565b602090611795611770565b818401520161177e565b906117c46117ac836116cd565b926020806117ba8693610276565b920191039061177b565b565b929190936117d2610d9e565b506117e46117df846110e8565b61179f565b946117ef6000610a79565b5b8061180b611805611800886110e8565b61024f565b9161024f565b101561184d576118489061184161182e866118278985906115ad565b5190611c5c565b89839161183b838361111d565b5261111d565b5150611079565b6117f0565b50925093905061185f92919091611d75565b90565b600090565b6118719051610293565b90565b61187e90516102c0565b90565b90565b61189061189591610293565b611881565b9052565b90565b6118a86118ad916102c0565b611899565b9052565b6001816118c46118cc93601c9695611884565b01809261189c565b0190565b60200190565b6118e0905161138b565b90565b1b90565b6119016118fc6118f683610bc2565b926118d0565b6118d6565b90601d811061190f575b5090565b6119249062ffffff1990601d036008026118e3565b163861190b565b61197f90611937611862565b5061197a611953602061194c60008501611867565b9301611874565b9161196b61195f610033565b938492602084016118b1565b602082018103825203826100a8565b6118e7565b90565b600090565b90565b61199e6119996119a392611987565b610a76565b61024f565b90565b600611156119b057565b6110ec565b906119bf826119a6565b565b90916119cb610d9e565b506119d4611982565b506119e160408401610a2c565b6119f46119ee600161198a565b9161024f565b1115600014611b4b57611a0a6000840151610eb0565b611a1d611a176000610a79565b9161024f565b03611b40575b611a2f60208401610a2c565b611a4c611a46611a4160408701610a2c565b61024f565b9161024f565b1015611b3557611a5b906120c2565b91611a696000820151610eb0565b611a7c611a766000610a79565b9161024f565b14611aea579182611a936020611aac949501610a2c565b916000611aa260408401610a2c565b9192015192612151565b80611ac0611aba60006119b5565b916119b5565b03611ae05750611ad3611ad9919261032f565b9161032f565b1490600090565b9291505060009190565b6040611af69101610a2c565b611b09611b03600161198a565b9161024f565b14600014611b2b57611b1e611b24919261032f565b9161032f565b1490600090565b5050600090600090565b505050600090600290565b505050600090600190565b611b586000840151610eb0565b611b8a611b84611b7f611b6d60208801610a2c565b611b7960408901610a2c565b90611f97565b61024f565b9161024f565b0315611a2357505050600090600190565b611ba361173e565b90565b60f81b90565b611bc0611bbb611bc592610a73565b611ba6565b610293565b90565b611bd26000611bac565b90565b905090565b611bff611bf692602092611bed81610bc2565b94858093611bd5565b93849101610bcf565b0190565b91611c22600184611c1a611c299796601d96611884565b018092611397565b0190611bda565b90565b60001b90565b611c3b91611bda565b90565b611c4860606100d1565b90565b52565b90611c589061032f565b9052565b906000611cb8602092611c6d611b9b565b50611ca7611c79611bc8565b611c99611c858861192b565b93611c8e610033565b948593898501611c03565b8682018103825203826100a8565b611caf610033565b91829182611c32565b039060025afa15611cff57611cfc611cd1600051611c2c565b611cf383611cea611ce0611c3e565b9560008701611c4b565b60208501611c4b565b60408301611c4e565b90565b610c4c565b611d0d9061024f565b6000198114611d1c5760010190565b611088565b90565b611d38611d33611d3d92611d21565b610a76565b61024f565b90565b611d4f611d559193929361024f565b9261024f565b91611d6183820261024f565b928184041490151715611d7057565b611088565b611d7d610d9e565b50611d886000610a79565b93611d9e611d996040850151611075565b61179f565b91611da96000610a79565b955b80611dc9611dc3611dbe60008901610a2c565b61024f565b9161024f565b141580611f18575b15611e2d57611e2181611df3611e2793611ded60008a01610a2c565b9061236f565b611e19611e0560408a01518c9061111d565b51888c91611e13838361111d565b5261111d565b5150906110c3565b96611d04565b95611dab565b5093909450611ea49150611e5e611e4e611e4960208601610a2c565b612445565b611e586002611d24565b90611d40565b80611e72611e6c600161198a565b9161024f565b10611f08575b839160009190600090611e9e611e98611e92600096610a79565b93610a79565b94610a79565b946124d2565b505093905b84611ec8611ec2611ebd6040870151611075565b61024f565b9161024f565b1015611ef757611eeb611ef191611ee46040860151889061111d565b5190612755565b94611079565b93611ea9565b909350611f059291506128c3565b90565b50611f13600161198a565b611e78565b5086611f38611f32611f2d6040890151611075565b61024f565b9161024f565b10611dd1565b600090565b90565b611f5a611f55611f5f92611f43565b610a76565b61024f565b90565b611f6d610100611f46565b90565b611f8f90611f89611f83611f949461024f565b9161024f565b906118e3565b61024f565b90565b611f9f611f3e565b5081611fb4611fae600161198a565b9161024f565b111561209857611fd4611fc5611f62565b611fce8461293e565b9061109e565b91611ffc6001611ff7611ff186611feb600161198a565b9061109e565b9161198a565b611f70565b908261202361201d61201885612012600161198a565b9061109e565b61024f565b9161024f565b11156000146120325750505090565b908092935061204a612044600161198a565b9161024f565b146000146120625750505061205f600161198a565b90565b61207c61208292612076600195829061109e565b9261109e565b90611f97565b90612090612095929161198a565b6110c3565b90565b50506120a46000610a79565b90565b806120b86001926120bf9594611884565b0190611bda565b90565b60006121136020926120d2610935565b506121026120de611bc8565b6120f46120e9610033565b9384928884016120a7565b8682018103825203826100a8565b61210a610033565b91829182611c32565b039060025afa1561212c57612129600051611c2c565b90565b610c4c565b9061213b82610eb0565b81101561214c576020809102010190565b610a39565b93929361215c610935565b50612165611982565b508161217a6121746000610a79565b9161024f565b14612364578161219361218d600161198a565b9161024f565b14612333576121a185610eb0565b6121b46121ae6000610a79565b9161024f565b14612328576121c282612445565b6121f4866000906121ee6121e86121d88b610eb0565b6121e2600161198a565b9061109e565b92610a79565b90612af6565b916121fd611982565b508061221161220b8461024f565b9161024f565b106122a4576122419392916122336122399261222b610935565b50829061109e565b9361109e565b849192612151565b90918161225761225160006119b5565b916119b5565b0361229c57505061229161228c84612286612276612296969792610eb0565b612280600161198a565b9061109e565b90612131565b610a1f565b612c4b565b90600090565b915092509190565b6122c493506000969496929192506122ba610935565b5091869192612151565b9093816122da6122d460006119b5565b916119b5565b0361232057505061231461230f61231a9394926123096122f982610eb0565b612303600161198a565b9061109e565b90612131565b610a1f565b90612c4b565b90600090565b915092509190565b505090915090600590565b5050909161234090610eb0565b61235361234d6000610a79565b9161024f565b0361235e5790600090565b90600490565b505090915090600390565b6123966123916123a692612381611f3e565b5061238b81612cbd565b9461109e565b612d44565b6123a0600161198a565b9061109e565b816123b96123b38361024f565b9161024f565b116123d557506123d2906123cd600161198a565b611f70565b90565b6123e991506123e4600161198a565b611f70565b90565b156123f357565b600080fd5b60ff1690565b61241261240d61241792611987565b610a76565b6123f8565b90565b1c90565b61243d90612437612431612442946123f8565b9161024f565b9061241a565b61024f565b90565b61244d611f3e565b5061246c8161246561245f600161198a565b9161024f565b10156123ec565b61249c61247882612d44565b61249761249160019261248b600161198a565b9061109e565b9161198a565b611f70565b906124b06124aa839261024f565b9161024f565b146124b9575b90565b6124cd906124c760016123fe565b9061241e565b6124b6565b919092939594956124e1611b9b565b506124ea611f3e565b506124f3611f3e565b506124fc610d9e565b5061250885839061109e565b61251b612515600161198a565b9161024f565b14612627578461253e61253861253360008701610a2c565b61024f565b9161024f565b11158015612601575b6125df5761257b9061256261255d87859061109e565b612445565b978491868590612573878d906110c3565b9293946124d2565b9161259e97939161259595935094919990949596926110c3565b919293946124d2565b949190929092946125b86125b26001610da8565b91610da8565b146125d2576125c691612755565b90929160009193929190565b5090929160009193929190565b93916125f79596935060409150015192909192612ddd565b9193909293929190565b508161262061261a61261560208701610a2c565b61024f565b9161024f565b1015612547565b93919061263a6000839895979801610a2c565b61264c6126468361024f565b9161024f565b11159081612699575b506126765761266c94506040015192909192612ddd565b9193909293929190565b5050908261268861268f949391611075565b9192612d99565b9193909293929190565b90506126b86126b26126ad60208501610a2c565b61024f565b9161024f565b1038612655565b6126c7611708565b90565b6126de6126d96126e392611987565b611ba6565b610293565b90565b6126f060016126ca565b90565b946127416020601d9661273988839c9b98612731826127499a6127296127519f80612721600192869f611884565b018092611397565b018092611397565b0180926113af565b018092611397565b018092611397565b0180926113af565b0190565b9061275e611b9b565b5060206000612832612777828601518386015190612e20565b936127806126bf565b5061279683870151612790612eb2565b90612ef8565b8314612880576128216127a7612eb2565b965b6128136127b46126e6565b916127c18782015161192b565b946127da60406127d38b85015161192b565b9301610a1f565b6127e68983015161192b565b906127ff60406127f88d86015161192b565b9401610a1f565b93612808610033565b9889978d89016126f3565b8682018103825203826100a8565b612829610033565b91829182611c32565b039060025afa1561287b576128789061286f61284f600051611c2c565b919361286661285c611c3e565b9560008701611c4b565b60208501611c4b565b60408301611c4e565b90565b610c4c565b6128958382015161288f612eb2565b90612ef8565b83146128a95761282184870151965b6127a9565b6128216128bd858801518684015190612f28565b966128a4565b906128cc610d9e565b506128e06000830151600083015190612ef8565b80612925575b91826128f2575b505090565b61291d919250612912604061290b816129179401610a1f565b9401610a1f565b61032f565b9161032f565b1438806128ed565b506129396020830151602083015190612ef8565b6128e6565b612946611f3e565b506129516000610a79565b5b6129666001612961839161198a565b611f70565b6129786129728461024f565b9161024f565b1015612997576129929061298c600161198a565b906110c3565b612952565b6129a991506129a4611f62565b61109e565b90565b606090565b60207f207468616e205f656e6400000000000000000000000000000000000000000000917f496e76616c69642072616e67653a205f626567696e206973206772656174657260008201520152565b612a0c602a60409261096c565b612a15816129b1565b0190565b612a2f90602081019060008183039101526129ff565b90565b60207f65206f7574206f6620626f756e64730000000000000000000000000000000000917f496e76616c69642072616e67653a205f626567696e206f72205f656e6420617260008201520152565b612a8d602f60409261096c565b612a9681612a32565b0190565b612ab09060208101906000818303910152612a80565b90565b90612ac5612ac083610540565b6100d1565b918252565b369037565b90612af4612adc83612ab3565b92602080612aea8693610540565b9201910390612aca565b565b929092612b016129ac565b5083612b15612b0f8561024f565b9161024f565b11612bfd5783612b35612b2f612b2a84610eb0565b61024f565b9161024f565b118015612bdb575b612bb957612b54612b4f84869061109e565b612acf565b91845b80612b6a612b648761024f565b9161024f565b1015612bb057612bab90612ba6612b8a612b85868490612131565b610a1f565b612ba18791612b9a858c9061109e565b9092612131565b611c4e565b611079565b612b57565b50935050905090565b612bc1610033565b62461bcd60e51b815280612bd760048201612a9a565b0390fd5b5082612bf7612bf1612bec84610eb0565b61024f565b9161024f565b11612b3d565b612c05610033565b62461bcd60e51b815280612c1b60048201612a19565b0390fd5b60209392612c3f600183612c378895612c4797611884565b0180926113af565b0180926113af565b0190565b612c9f602092612c8e600093612c5f610935565b50612c80612c6b6126e6565b9193612c75610033565b948593898501612c1f565b8682018103825203826100a8565b612c96610033565b91829182611c32565b039060025afa15612cb857612cb5600051611c2c565b90565b610c4c565b612cc5611f3e565b50612cd0600161198a565b91612cdb6000610a79565b5b82612cf0612cea6000610a79565b9161024f565b141580612d27575b15612d2057612d09612d1a91611d04565b92612d1460016123fe565b9061241e565b91612cdc565b9150915090565b50838316612d3e612d386000610a79565b9161024f565b14612cf8565b612d4c611f3e565b50612d576000610a79565b5b81612d6c612d666000610a79565b9161024f565b14612d9457612d7d612d8e91611d04565b91612d8860016123fe565b9061241e565b90612d58565b905090565b91612dcd92949394612da9611b9b565b50612db2611f3e565b50612dbb611f3e565b50612dc4610d9e565b50919091612f4d565b9391929093929193929193929190565b91612e1192949394612ded611b9b565b50612df6611f3e565b50612dff611f3e565b50612e08610d9e565b50919091612f4d565b91929091929193929193929190565b90612e296126bf565b50612e35828290613017565b600014612e40575090565b905090565b612e4f60406100d1565b90565b90565b612e69612e64612e6e92612e52565b611ba6565b610293565b90565b90612e7b90610293565b9052565b90565b60201b90565b612e9c612e97612ea192612e7f565b612e82565b6102c0565b90565b90612eae906102c0565b9052565b612eba6126bf565b5060ff612ef5612eec60018060e01b03612ee7612ede612ed8612e45565b95612e55565b60008601612e71565b612e88565b60208301612ea4565b90565b612f1e612f19612f13612f2493612f0d610d9e565b5061192b565b9361192b565b61138b565b9161138b565b1490565b90612f316126bf565b50612f3d828290613047565b600014612f48575090565b905090565b9091612f57611b9b565b50612f60611f3e565b50612f69610d9e565b50612f7382611075565b612f86612f806000610a79565b9161024f565b148015612ff4575b908115612fd7575b50612fc457612fa9612fbb91839061111d565b5191612fb5600161198a565b906110c3565b91600091929190565b50612fcd611b9b565b9091600191929190565b9050612fec612fe6849261024f565b9161024f565b101538612f96565b508261301061300a61300585611075565b61024f565b9161024f565b1015612f8e565b61303d6130386130326130439361302c610d9e565b5061192b565b9361192b565b61138b565b9161138b565b1090565b61306d6130686130626130739361305c610d9e565b5061192b565b9361192b565b61138b565b9161138b565b119056fea26469706673582212201ae3d0193439c0eccd6519edb9e8e35c8a110f6ee8f1a8c3467145a0ed311c7264736f6c634300081a0033",
  "devdoc": {
    "kind": "dev",
    "methods": {
      "constructor": {
        "params": {
          "_blobstreamX": "BlobstreamX contract where Celestia commitments are being stored",
          "_inputBox": "InputBox contract to send inputs to Cartesi DApps"
        }
      },
      "relayShares(address,(bytes[],(uint256,uint256,((bytes1,bytes28),(bytes1,bytes28),bytes32)[])[],(bytes1,bytes28),((bytes1,bytes28),(bytes1,bytes28),bytes32)[],(bytes32[],uint256,uint256)[],(uint256,(uint256,bytes32),(bytes32[],uint256,uint256))),bytes32)": {
        "details": "Called by clients to securely relay Celestia data to Cartesi DApps",
        "params": {
          "_dapp": "The address of the DApp",
          "_proof": "SharesProof object showing that a range of shares is committed to Celestia",
          "_root": "The Celestia \"data root\" for the block that contains the shares."
        },
        "returns": {
          "_0": "The hash of the input as returned by the Cartesi DApp's input box"
        }
      }
    },
    "title": "CelestiaRelay",
    "version": 1
  },
  "userdoc": {
    "kind": "user",
    "methods": {
      "constructor": {
        "notice": "Constructor"
      },
      "relayShares(address,(bytes[],(uint256,uint256,((bytes1,bytes28),(bytes1,bytes28),bytes32)[])[],(bytes1,bytes28),((bytes1,bytes28),(bytes1,bytes28),bytes32)[],(bytes32[],uint256,uint256)[],(uint256,(uint256,bytes32),(bytes32[],uint256,uint256))),bytes32)": {
        "notice": "Relay the specified Celestia shares as an input to a DApp's input box"
      }
    },
    "notice": "Relays Celestia blocks as inputs to Cartesi DApps",
    "version": 1
  },
  "storageLayout": {
    "storage": [
      {
        "astId": 2744,
        "contract": "contracts/CelestiaRelay.sol:CelestiaRelay",
        "label": "inputBox",
        "offset": 0,
        "slot": "0",
        "type": "t_contract(IInputBox)49"
      },
      {
        "astId": 2747,
        "contract": "contracts/CelestiaRelay.sol:CelestiaRelay",
        "label": "blobstreamX",
        "offset": 0,
        "slot": "1",
        "type": "t_contract(IDAOracle)87"
      }
    ],
    "types": {
      "t_contract(IDAOracle)87": {
        "encoding": "inplace",
        "label": "contract IDAOracle",
        "numberOfBytes": "20"
      },
      "t_contract(IInputBox)49": {
        "encoding": "inplace",
        "label": "contract IInputBox",
        "numberOfBytes": "20"
      }
    }
  }
}