{
  "address": "0xCF3A2BA57D28e7A4B9E2c5E5bcFff65A7aef6E98",
  "abi": [
    {
      "inputs": [
        {
          "internalType": "contract IInputBox",
          "name": "inputBox",
          "type": "address"
        }
      ],
      "stateMutability": "nonpayable",
      "type": "constructor"
    },
    {
      "inputs": [],
      "name": "ERC20TransferFailed",
      "type": "error"
    },
    {
      "inputs": [
        {
          "internalType": "contract IERC20",
          "name": "token",
          "type": "address"
        },
        {
          "internalType": "address",
          "name": "appContract",
          "type": "address"
        },
        {
          "internalType": "uint256",
          "name": "value",
          "type": "uint256"
        },
        {
          "internalType": "bytes",
          "name": "execLayerData",
          "type": "bytes"
        }
      ],
      "name": "depositERC20Tokens",
      "outputs": [],
      "stateMutability": "nonpayable",
      "type": "function"
    },
    {
      "inputs": [],
      "name": "getInputBox",
      "outputs": [
        {
          "internalType": "contract IInputBox",
          "name": "",
          "type": "address"
        }
      ],
      "stateMutability": "view",
      "type": "function"
    },
    {
      "inputs": [
        {
          "internalType": "bytes4",
          "name": "interfaceId",
          "type": "bytes4"
        }
      ],
      "name": "supportsInterface",
      "outputs": [
        {
          "internalType": "bool",
          "name": "",
          "type": "bool"
        }
      ],
      "stateMutability": "view",
      "type": "function"
    }
  ],
  "transactionHash": "0xc35d9ca7774cb773c21789d9e189331a0eba1d2ecb03a6093d1a000abc2c0a4e",
  "args": [
    "0x58Df21fE097d4bE5dCf61e01d9ea3f6B81c2E1dB"
  ],
  "numDeployments": 1,
  "bytecode": "0x60a060405234801561001057600080fd5b5060405161052438038061052483398101604081905261002f91610040565b6001600160a01b0316608052610070565b60006020828403121561005257600080fd5b81516001600160a01b038116811461006957600080fd5b9392505050565b60805161049361009160003960008181605201526101aa01526104936000f3fe608060405234801561001057600080fd5b50600436106100405760003560e01c8062aace9a1461004557806301ffc9a71461008157806395854b81146100a4575b600080fd5b6040516001600160a01b037f00000000000000000000000000000000000000000000000000000000000000001681526020015b60405180910390f35b61009461008f366004610297565b6100b9565b6040519015158152602001610078565b6100b76100b23660046102e0565b6100e4565b005b60006001600160e01b031982166395854b8160e01b14806100de57506100de8261022e565b92915050565b6040516323b872dd60e01b81523360048201526001600160a01b03858116602483015260448201859052600091908716906323b872dd906064016020604051808303816000875af115801561013d573d6000803e3d6000fd5b505050506040513d601f19601f82011682018060405250810190610161919061037f565b90508061018157604051633c9fd93960e21b815260040160405180910390fd5b60006101908733878787610262565b604051631789cd6360e01b81529091506001600160a01b037f00000000000000000000000000000000000000000000000000000000000000001690631789cd63906101e190899085906004016103a1565b6020604051808303816000875af1158015610200573d6000803e3d6000fd5b505050506040513d601f19601f820116820180604052508101906102249190610400565b5050505050505050565b60006001600160e01b031982166255674d60e11b14806100de57506301ffc9a760e01b6001600160e01b03198316146100de565b6060858585858560405160200161027d959493929190610419565b604051602081830303815290604052905095945050505050565b6000602082840312156102a957600080fd5b81356001600160e01b0319811681146102c157600080fd5b9392505050565b6001600160a01b03811681146102dd57600080fd5b50565b6000806000806000608086880312156102f857600080fd5b8535610303816102c8565b94506020860135610313816102c8565b935060408601359250606086013567ffffffffffffffff8082111561033757600080fd5b818801915088601f83011261034b57600080fd5b81358181111561035a57600080fd5b89602082850101111561036c57600080fd5b9699959850939650602001949392505050565b60006020828403121561039157600080fd5b815180151581146102c157600080fd5b60018060a01b03831681526000602060406020840152835180604085015260005b818110156103de578581018301518582016060015282016103c2565b506000606082860101526060601f19601f830116850101925050509392505050565b60006020828403121561041257600080fd5b5051919050565b60006bffffffffffffffffffffffff19808860601b168352808760601b1660148401525084602883015282846048840137506000910160480190815294935050505056fea26469706673582212207a41e94dd179d21acd5f0060b47b28f8ab0125fb57b8ae4e62f0a5193dbe369d64736f6c63430008170033",
  "devdoc": {
    "kind": "dev",
    "methods": {
      "constructor": {
        "params": {
          "inputBox": "The input box used by the portal"
        }
      },
      "depositERC20Tokens(address,address,uint256,bytes)": {
        "params": {
          "appContract": "The application contract address",
          "execLayerData": "Additional data to be interpreted by the execution layer",
          "token": "The ERC-20 token contract",
          "value": "The amount of tokens to be transferred"
        }
      },
      "getInputBox()": {
        "returns": {
          "_0": "The input box"
        }
      }
    },
    "title": "ERC-20 Portal",
    "version": 1
  },
  "userdoc": {
    "errors": {
      "ERC20TransferFailed()": [
        {
          "notice": "Failed to transfer ERC-20 tokens to application"
        }
      ]
    },
    "kind": "user",
    "methods": {
      "constructor": {
        "notice": "Constructs the portal."
      },
      "depositERC20Tokens(address,address,uint256,bytes)": {
        "notice": "Transfer ERC-20 tokens to an application contract and add an input to the application's input box to signal such operation. The caller must allow the portal to withdraw at least `value` tokens from their account beforehand, by calling the `approve` function in the token contract."
      },
      "getInputBox()": {
        "notice": "Get the input box used by this portal."
      }
    },
    "notice": "This contract allows anyone to perform transfers of ERC-20 tokens to an application contract while informing the off-chain machine.",
    "version": 1
  }
}